{
  "abi": [
    {
      "inputs": [
        {
          "internalType": "address",
          "name": "underlying_",
          "type": "address"
        },
        {
          "internalType": "contract ComptrollerInterface",
          "name": "comptroller_",
          "type": "address"
        },
        {
          "internalType": "contract InterestRateModel",
          "name": "interestRateModel_",
          "type": "address"
        },
        {
          "internalType": "uint256",
          "name": "initialExchangeRateMantissa_",
          "type": "uint256"
        },
        {
          "internalType": "string",
          "name": "name_",
          "type": "string"
        },
        {
          "internalType": "string",
          "name": "symbol_",
          "type": "string"
        },
        {
          "internalType": "uint8",
          "name": "decimals_",
          "type": "uint8"
        },
        {
          "internalType": "address",
          "name": "implementation_",
          "type": "address"
        },
        {
          "internalType": "bytes",
          "name": "becomeImplementationData",
          "type": "bytes"
        }
      ],
      "payable": false,
      "stateMutability": "nonpayable",
      "type": "constructor"
    },
    {
      "anonymous": false,
      "inputs": [
        {
          "indexed": false,
          "internalType": "uint256",
          "name": "cashPrior",
          "type": "uint256"
        },
        {
          "indexed": false,
          "internalType": "uint256",
          "name": "interestAccumulated",
          "type": "uint256"
        },
        {
          "indexed": false,
          "internalType": "uint256",
          "name": "borrowIndex",
          "type": "uint256"
        },
        {
          "indexed": false,
          "internalType": "uint256",
          "name": "totalBorrows",
          "type": "uint256"
        }
      ],
      "name": "AccrueInterest",
      "type": "event"
    },
    {
      "anonymous": false,
      "inputs": [
        {
          "indexed": true,
          "internalType": "address",
          "name": "owner",
          "type": "address"
        },
        {
          "indexed": true,
          "internalType": "address",
          "name": "spender",
          "type": "address"
        },
        {
          "indexed": false,
          "internalType": "uint256",
          "name": "amount",
          "type": "uint256"
        }
      ],
      "name": "Approval",
      "type": "event"
    },
    {
      "anonymous": false,
      "inputs": [
        {
          "indexed": false,
          "internalType": "address",
          "name": "borrower",
          "type": "address"
        },
        {
          "indexed": false,
          "internalType": "uint256",
          "name": "borrowAmount",
          "type": "uint256"
        },
        {
          "indexed": false,
          "internalType": "uint256",
          "name": "accountBorrows",
          "type": "uint256"
        },
        {
          "indexed": false,
          "internalType": "uint256",
          "name": "totalBorrows",
          "type": "uint256"
        }
      ],
      "name": "Borrow",
      "type": "event"
    },
    {
      "anonymous": false,
      "inputs": [
        {
          "indexed": false,
          "internalType": "uint256",
          "name": "error",
          "type": "uint256"
        },
        {
          "indexed": false,
          "internalType": "uint256",
          "name": "info",
          "type": "uint256"
        },
        {
          "indexed": false,
          "internalType": "uint256",
          "name": "detail",
          "type": "uint256"
        }
      ],
      "name": "Failure",
      "type": "event"
    },
    {
      "anonymous": false,
      "inputs": [
        {
          "indexed": false,
          "internalType": "address",
          "name": "liquidator",
          "type": "address"
        },
        {
          "indexed": false,
          "internalType": "address",
          "name": "borrower",
          "type": "address"
        },
        {
          "indexed": false,
          "internalType": "uint256",
          "name": "repayAmount",
          "type": "uint256"
        },
        {
          "indexed": false,
          "internalType": "address",
          "name": "cTokenCollateral",
          "type": "address"
        },
        {
          "indexed": false,
          "internalType": "uint256",
          "name": "seizeTokens",
          "type": "uint256"
        }
      ],
      "name": "LiquidateBorrow",
      "type": "event"
    },
    {
      "anonymous": false,
      "inputs": [
        {
          "indexed": false,
          "internalType": "address",
          "name": "minter",
          "type": "address"
        },
        {
          "indexed": false,
          "internalType": "uint256",
          "name": "mintAmount",
          "type": "uint256"
        },
        {
          "indexed": false,
          "internalType": "uint256",
          "name": "mintTokens",
          "type": "uint256"
        }
      ],
      "name": "Mint",
      "type": "event"
    },
    {
      "anonymous": false,
      "inputs": [
        {
          "indexed": false,
          "internalType": "address",
          "name": "oldAdmin",
          "type": "address"
        },
        {
          "indexed": false,
          "internalType": "address",
          "name": "newAdmin",
          "type": "address"
        }
      ],
      "name": "NewAdmin",
      "type": "event"
    },
    {
      "anonymous": false,
      "inputs": [
        {
          "indexed": false,
          "internalType": "contract ComptrollerInterface",
          "name": "oldComptroller",
          "type": "address"
        },
        {
          "indexed": false,
          "internalType": "contract ComptrollerInterface",
          "name": "newComptroller",
          "type": "address"
        }
      ],
      "name": "NewComptroller",
      "type": "event"
    },
    {
      "anonymous": false,
      "inputs": [
        {
          "indexed": false,
          "internalType": "address",
          "name": "oldImplementation",
          "type": "address"
        },
        {
          "indexed": false,
          "internalType": "address",
          "name": "newImplementation",
          "type": "address"
        }
      ],
      "name": "NewImplementation",
      "type": "event"
    },
    {
      "anonymous": false,
      "inputs": [
        {
          "indexed": false,
          "internalType": "contract InterestRateModel",
          "name": "oldInterestRateModel",
          "type": "address"
        },
        {
          "indexed": false,
          "internalType": "contract InterestRateModel",
          "name": "newInterestRateModel",
          "type": "address"
        }
      ],
      "name": "NewMarketInterestRateModel",
      "type": "event"
    },
    {
      "anonymous": false,
      "inputs": [
        {
          "indexed": false,
          "internalType": "address",
          "name": "oldPendingAdmin",
          "type": "address"
        },
        {
          "indexed": false,
          "internalType": "address",
          "name": "newPendingAdmin",
          "type": "address"
        }
      ],
      "name": "NewPendingAdmin",
      "type": "event"
    },
    {
      "anonymous": false,
      "inputs": [
        {
          "indexed": false,
          "internalType": "uint256",
          "name": "oldProtocolSeizeShareMantissa",
          "type": "uint256"
        },
        {
          "indexed": false,
          "internalType": "uint256",
          "name": "newProtocolSeizeShareMantissa",
          "type": "uint256"
        }
      ],
      "name": "NewProtocolSeizeShare",
      "type": "event"
    },
    {
      "anonymous": false,
      "inputs": [
        {
          "indexed": false,
          "internalType": "uint256",
          "name": "oldReserveFactorMantissa",
          "type": "uint256"
        },
        {
          "indexed": false,
          "internalType": "uint256",
          "name": "newReserveFactorMantissa",
          "type": "uint256"
        }
      ],
      "name": "NewReserveFactor",
      "type": "event"
    },
    {
      "anonymous": false,
      "inputs": [
        {
          "indexed": false,
          "internalType": "address",
          "name": "redeemer",
          "type": "address"
        },
        {
          "indexed": false,
          "internalType": "uint256",
          "name": "redeemAmount",
          "type": "uint256"
        },
        {
          "indexed": false,
          "internalType": "uint256",
          "name": "redeemTokens",
          "type": "uint256"
        }
      ],
      "name": "Redeem",
      "type": "event"
    },
    {
      "anonymous": false,
      "inputs": [
        {
          "indexed": false,
          "internalType": "address",
          "name": "payer",
          "type": "address"
        },
        {
          "indexed": false,
          "internalType": "address",
          "name": "borrower",
          "type": "address"
        },
        {
          "indexed": false,
          "internalType": "uint256",
          "name": "repayAmount",
          "type": "uint256"
        },
        {
          "indexed": false,
          "internalType": "uint256",
          "name": "accountBorrows",
          "type": "uint256"
        },
        {
          "indexed": false,
          "internalType": "uint256",
          "name": "totalBorrows",
          "type": "uint256"
        }
      ],
      "name": "RepayBorrow",
      "type": "event"
    },
    {
      "anonymous": false,
      "inputs": [
        {
          "indexed": false,
          "internalType": "address",
          "name": "benefactor",
          "type": "address"
        },
        {
          "indexed": false,
          "internalType": "uint256",
          "name": "addAmount",
          "type": "uint256"
        },
        {
          "indexed": false,
          "internalType": "uint256",
          "name": "newTotalReserves",
          "type": "uint256"
        }
      ],
      "name": "ReservesAdded",
      "type": "event"
    },
    {
      "anonymous": false,
      "inputs": [
        {
          "indexed": false,
          "internalType": "address",
          "name": "admin",
          "type": "address"
        },
        {
          "indexed": false,
          "internalType": "uint256",
          "name": "reduceAmount",
          "type": "uint256"
        },
        {
          "indexed": false,
          "internalType": "uint256",
          "name": "newTotalReserves",
          "type": "uint256"
        }
      ],
      "name": "ReservesReduced",
      "type": "event"
    },
    {
      "anonymous": false,
      "inputs": [
        {
          "indexed": true,
          "internalType": "address",
          "name": "from",
          "type": "address"
        },
        {
          "indexed": true,
          "internalType": "address",
          "name": "to",
          "type": "address"
        },
        {
          "indexed": false,
          "internalType": "uint256",
          "name": "amount",
          "type": "uint256"
        }
      ],
      "name": "Transfer",
      "type": "event"
    },
    {
      "payable": true,
      "stateMutability": "payable",
      "type": "fallback"
    },
    {
      "constant": false,
      "inputs": [],
      "name": "_acceptAdmin",
      "outputs": [
        {
          "internalType": "uint256",
          "name": "",
          "type": "uint256"
        }
      ],
      "payable": false,
      "stateMutability": "nonpayable",
      "type": "function"
    },
    {
      "constant": false,
      "inputs": [
        {
          "internalType": "uint256",
          "name": "addAmount",
          "type": "uint256"
        }
      ],
      "name": "_addReserves",
      "outputs": [
        {
          "internalType": "uint256",
          "name": "",
          "type": "uint256"
        }
      ],
      "payable": false,
      "stateMutability": "nonpayable",
      "type": "function"
    },
    {
      "constant": false,
      "inputs": [
        {
          "internalType": "uint256",
          "name": "reduceAmount",
          "type": "uint256"
        }
      ],
      "name": "_reduceReserves",
      "outputs": [
        {
          "internalType": "uint256",
          "name": "",
          "type": "uint256"
        }
      ],
      "payable": false,
      "stateMutability": "nonpayable",
      "type": "function"
    },
    {
      "constant": false,
      "inputs": [
        {
          "internalType": "contract ComptrollerInterface",
          "name": "newComptroller",
          "type": "address"
        }
      ],
      "name": "_setComptroller",
      "outputs": [
        {
          "internalType": "uint256",
          "name": "",
          "type": "uint256"
        }
      ],
      "payable": false,
      "stateMutability": "nonpayable",
      "type": "function"
    },
    {
      "constant": false,
      "inputs": [
        {
          "internalType": "address",
          "name": "implementation_",
          "type": "address"
        },
        {
          "internalType": "bool",
          "name": "allowResign",
          "type": "bool"
        },
        {
          "internalType": "bytes",
          "name": "becomeImplementationData",
          "type": "bytes"
        }
      ],
      "name": "_setImplementation",
      "outputs": [],
      "payable": false,
      "stateMutability": "nonpayable",
      "type": "function"
    },
    {
      "constant": false,
      "inputs": [
        {
          "internalType": "contract InterestRateModel",
          "name": "newInterestRateModel",
          "type": "address"
        }
      ],
      "name": "_setInterestRateModel",
      "outputs": [
        {
          "internalType": "uint256",
          "name": "",
          "type": "uint256"
        }
      ],
      "payable": false,
      "stateMutability": "nonpayable",
      "type": "function"
    },
    {
      "constant": false,
      "inputs": [
        {
          "internalType": "address payable",
          "name": "newPendingAdmin",
          "type": "address"
        }
      ],
      "name": "_setPendingAdmin",
      "outputs": [
        {
          "internalType": "uint256",
          "name": "",
          "type": "uint256"
        }
      ],
      "payable": false,
      "stateMutability": "nonpayable",
      "type": "function"
    },
    {
      "constant": false,
      "inputs": [
        {
          "internalType": "uint256",
          "name": "newProtocolSeizeShareMantissa",
          "type": "uint256"
        }
      ],
      "name": "_setProtocolSeizeShare",
      "outputs": [
        {
          "internalType": "uint256",
          "name": "",
          "type": "uint256"
        }
      ],
      "payable": false,
      "stateMutability": "nonpayable",
      "type": "function"
    },
    {
      "constant": false,
      "inputs": [
        {
          "internalType": "uint256",
          "name": "newReserveFactorMantissa",
          "type": "uint256"
        }
      ],
      "name": "_setReserveFactor",
      "outputs": [
        {
          "internalType": "uint256",
          "name": "",
          "type": "uint256"
        }
      ],
      "payable": false,
      "stateMutability": "nonpayable",
      "type": "function"
    },
    {
      "constant": true,
      "inputs": [],
      "name": "accrualBlockNumber",
      "outputs": [
        {
          "internalType": "uint256",
          "name": "",
          "type": "uint256"
        }
      ],
      "payable": false,
      "stateMutability": "view",
      "type": "function"
    },
    {
      "constant": false,
      "inputs": [],
      "name": "accrueInterest",
      "outputs": [
        {
          "internalType": "uint256",
          "name": "",
          "type": "uint256"
        }
      ],
      "payable": false,
      "stateMutability": "nonpayable",
      "type": "function"
    },
    {
      "constant": true,
      "inputs": [],
      "name": "admin",
      "outputs": [
        {
          "internalType": "address payable",
          "name": "",
          "type": "address"
        }
      ],
      "payable": false,
      "stateMutability": "view",
      "type": "function"
    },
    {
      "constant": true,
      "inputs": [
        {
          "internalType": "address",
          "name": "owner",
          "type": "address"
        },
        {
          "internalType": "address",
          "name": "spender",
          "type": "address"
        }
      ],
      "name": "allowance",
      "outputs": [
        {
          "internalType": "uint256",
          "name": "",
          "type": "uint256"
        }
      ],
      "payable": false,
      "stateMutability": "view",
      "type": "function"
    },
    {
      "constant": false,
      "inputs": [
        {
          "internalType": "address",
          "name": "spender",
          "type": "address"
        },
        {
          "internalType": "uint256",
          "name": "amount",
          "type": "uint256"
        }
      ],
      "name": "approve",
      "outputs": [
        {
          "internalType": "bool",
          "name": "",
          "type": "bool"
        }
      ],
      "payable": false,
      "stateMutability": "nonpayable",
      "type": "function"
    },
    {
      "constant": true,
      "inputs": [
        {
          "internalType": "address",
          "name": "owner",
          "type": "address"
        }
      ],
      "name": "balanceOf",
      "outputs": [
        {
          "internalType": "uint256",
          "name": "",
          "type": "uint256"
        }
      ],
      "payable": false,
      "stateMutability": "view",
      "type": "function"
    },
    {
      "constant": true,
      "inputs": [
        {
          "internalType": "address",
          "name": "owner",
          "type": "address"
        }
      ],
      "name": "balanceOfUnderlying",
      "outputs": [
        {
          "internalType": "uint256",
          "name": "",
          "type": "uint256"
        }
      ],
      "payable": false,
      "stateMutability": "view",
      "type": "function"
    },
    {
      "constant": false,
      "inputs": [
        {
          "internalType": "uint256",
          "name": "borrowAmount",
          "type": "uint256"
        }
      ],
      "name": "borrow",
      "outputs": [
        {
          "internalType": "uint256",
          "name": "",
          "type": "uint256"
        }
      ],
      "payable": false,
      "stateMutability": "nonpayable",
      "type": "function"
    },
    {
      "constant": false,
      "inputs": [
        {
          "internalType": "address",
          "name": "account",
          "type": "address"
        }
      ],
      "name": "borrowBalanceCurrent",
      "outputs": [
        {
          "internalType": "uint256",
          "name": "",
          "type": "uint256"
        }
      ],
      "payable": false,
      "stateMutability": "nonpayable",
      "type": "function"
    },
    {
      "constant": true,
      "inputs": [
        {
          "internalType": "address",
          "name": "account",
          "type": "address"
        }
      ],
      "name": "borrowBalanceStored",
      "outputs": [
        {
          "internalType": "uint256",
          "name": "",
          "type": "uint256"
        }
      ],
      "payable": false,
      "stateMutability": "view",
      "type": "function"
    },
    {
      "constant": true,
      "inputs": [],
      "name": "borrowIndex",
      "outputs": [
        {
          "internalType": "uint256",
          "name": "",
          "type": "uint256"
        }
      ],
      "payable": false,
      "stateMutability": "view",
      "type": "function"
    },
    {
      "constant": true,
      "inputs": [],
      "name": "borrowRatePerBlock",
      "outputs": [
        {
          "internalType": "uint256",
          "name": "",
          "type": "uint256"
        }
      ],
      "payable": false,
      "stateMutability": "view",
      "type": "function"
    },
    {
      "constant": true,
      "inputs": [],
      "name": "comptroller",
      "outputs": [
        {
          "internalType": "contract ComptrollerInterface",
          "name": "",
          "type": "address"
        }
      ],
      "payable": false,
      "stateMutability": "view",
      "type": "function"
    },
    {
      "constant": true,
      "inputs": [],
      "name": "decimals",
      "outputs": [
        {
          "internalType": "uint8",
          "name": "",
          "type": "uint8"
        }
      ],
      "payable": false,
      "stateMutability": "view",
      "type": "function"
    },
    {
      "constant": false,
      "inputs": [
        {
          "internalType": "bytes",
          "name": "data",
          "type": "bytes"
        }
      ],
      "name": "delegateToImplementation",
      "outputs": [
        {
          "internalType": "bytes",
          "name": "",
          "type": "bytes"
        }
      ],
      "payable": false,
      "stateMutability": "nonpayable",
      "type": "function"
    },
    {
      "constant": true,
      "inputs": [
        {
          "internalType": "bytes",
          "name": "data",
          "type": "bytes"
        }
      ],
      "name": "delegateToViewImplementation",
      "outputs": [
        {
          "internalType": "bytes",
          "name": "",
          "type": "bytes"
        }
      ],
      "payable": false,
      "stateMutability": "view",
      "type": "function"
    },
    {
      "constant": true,
      "inputs": [],
      "name": "exchangeRateCurrent",
      "outputs": [
        {
          "internalType": "uint256",
          "name": "",
          "type": "uint256"
        }
      ],
      "payable": false,
      "stateMutability": "view",
      "type": "function"
    },
    {
      "constant": true,
      "inputs": [],
      "name": "exchangeRateStored",
      "outputs": [
        {
          "internalType": "uint256",
          "name": "",
          "type": "uint256"
        }
      ],
      "payable": false,
      "stateMutability": "view",
      "type": "function"
    },
    {
      "constant": true,
      "inputs": [
        {
          "internalType": "address",
          "name": "account",
          "type": "address"
        }
      ],
      "name": "getAccountSnapshot",
      "outputs": [
        {
          "internalType": "uint256",
          "name": "",
          "type": "uint256"
        },
        {
          "internalType": "uint256",
          "name": "",
          "type": "uint256"
        },
        {
          "internalType": "uint256",
          "name": "",
          "type": "uint256"
        },
        {
          "internalType": "uint256",
          "name": "",
          "type": "uint256"
        }
      ],
      "payable": false,
      "stateMutability": "view",
      "type": "function"
    },
    {
      "constant": true,
      "inputs": [],
      "name": "getCash",
      "outputs": [
        {
          "internalType": "uint256",
          "name": "",
          "type": "uint256"
        }
      ],
      "payable": false,
      "stateMutability": "view",
      "type": "function"
    },
    {
      "constant": true,
      "inputs": [],
      "name": "implementation",
      "outputs": [
        {
          "internalType": "address",
          "name": "",
          "type": "address"
        }
      ],
      "payable": false,
      "stateMutability": "view",
      "type": "function"
    },
    {
      "constant": true,
      "inputs": [],
      "name": "interestRateModel",
      "outputs": [
        {
          "internalType": "contract InterestRateModel",
          "name": "",
          "type": "address"
        }
      ],
      "payable": false,
      "stateMutability": "view",
      "type": "function"
    },
    {
      "constant": true,
      "inputs": [],
      "name": "isCToken",
      "outputs": [
        {
          "internalType": "bool",
          "name": "",
          "type": "bool"
        }
      ],
      "payable": false,
      "stateMutability": "view",
      "type": "function"
    },
    {
      "constant": false,
      "inputs": [
        {
          "internalType": "address",
          "name": "borrower",
          "type": "address"
        },
        {
          "internalType": "uint256",
          "name": "repayAmount",
          "type": "uint256"
        },
        {
          "internalType": "contract CTokenInterface",
          "name": "cTokenCollateral",
          "type": "address"
        }
      ],
      "name": "liquidateBorrow",
      "outputs": [
        {
          "internalType": "uint256",
          "name": "",
          "type": "uint256"
        }
      ],
      "payable": false,
      "stateMutability": "nonpayable",
      "type": "function"
    },
    {
      "constant": false,
      "inputs": [
        {
          "internalType": "uint256",
          "name": "mintAmount",
          "type": "uint256"
        },
        {
          "internalType": "bool",
          "name": "enterMarket",
          "type": "bool"
        }
      ],
      "name": "mint",
      "outputs": [
        {
          "internalType": "uint256",
          "name": "",
          "type": "uint256"
        }
      ],
      "payable": false,
      "stateMutability": "nonpayable",
      "type": "function"
    },
    {
      "constant": true,
      "inputs": [],
      "name": "name",
      "outputs": [
        {
          "internalType": "string",
          "name": "",
          "type": "string"
        }
      ],
      "payable": false,
      "stateMutability": "view",
      "type": "function"
    },
    {
      "constant": true,
      "inputs": [],
      "name": "pendingAdmin",
      "outputs": [
        {
          "internalType": "address payable",
          "name": "",
          "type": "address"
        }
      ],
      "payable": false,
      "stateMutability": "view",
      "type": "function"
    },
    {
      "constant": true,
      "inputs": [],
      "name": "protocolSeizeShareMantissa",
      "outputs": [
        {
          "internalType": "uint256",
          "name": "",
          "type": "uint256"
        }
      ],
      "payable": false,
      "stateMutability": "view",
      "type": "function"
    },
    {
      "constant": false,
      "inputs": [
        {
          "internalType": "uint256",
          "name": "redeemTokens",
          "type": "uint256"
        }
      ],
      "name": "redeem",
      "outputs": [
        {
          "internalType": "uint256",
          "name": "",
          "type": "uint256"
        }
      ],
      "payable": false,
      "stateMutability": "nonpayable",
      "type": "function"
    },
    {
      "constant": false,
      "inputs": [
        {
          "internalType": "uint256",
          "name": "redeemAmount",
          "type": "uint256"
        }
      ],
      "name": "redeemUnderlying",
      "outputs": [
        {
          "internalType": "uint256",
          "name": "",
          "type": "uint256"
        }
      ],
      "payable": false,
      "stateMutability": "nonpayable",
      "type": "function"
    },
    {
      "constant": false,
      "inputs": [
        {
          "internalType": "uint256",
          "name": "repayAmount",
          "type": "uint256"
        }
      ],
      "name": "repayBorrow",
      "outputs": [
        {
          "internalType": "uint256",
          "name": "",
          "type": "uint256"
        }
      ],
      "payable": false,
      "stateMutability": "nonpayable",
      "type": "function"
    },
    {
      "constant": false,
      "inputs": [
        {
          "internalType": "address",
          "name": "borrower",
          "type": "address"
        },
        {
          "internalType": "uint256",
          "name": "repayAmount",
          "type": "uint256"
        }
      ],
      "name": "repayBorrowBehalf",
      "outputs": [
        {
          "internalType": "uint256",
          "name": "",
          "type": "uint256"
        }
      ],
      "payable": false,
      "stateMutability": "nonpayable",
      "type": "function"
    },
    {
      "constant": true,
      "inputs": [],
      "name": "reserveFactorMantissa",
      "outputs": [
        {
          "internalType": "uint256",
          "name": "",
          "type": "uint256"
        }
      ],
      "payable": false,
      "stateMutability": "view",
      "type": "function"
    },
    {
      "constant": false,
      "inputs": [
        {
          "internalType": "address",
          "name": "liquidator",
          "type": "address"
        },
        {
          "internalType": "address",
          "name": "borrower",
          "type": "address"
        },
        {
          "internalType": "uint256",
          "name": "seizeTokens",
          "type": "uint256"
        }
      ],
      "name": "seize",
      "outputs": [
        {
          "internalType": "uint256",
          "name": "",
          "type": "uint256"
        }
      ],
      "payable": false,
      "stateMutability": "nonpayable",
      "type": "function"
    },
    {
      "constant": true,
      "inputs": [],
      "name": "supplyRatePerBlock",
      "outputs": [
        {
          "internalType": "uint256",
          "name": "",
          "type": "uint256"
        }
      ],
      "payable": false,
      "stateMutability": "view",
      "type": "function"
    },
    {
      "constant": true,
      "inputs": [],
      "name": "symbol",
      "outputs": [
        {
          "internalType": "string",
          "name": "",
          "type": "string"
        }
      ],
      "payable": false,
      "stateMutability": "view",
      "type": "function"
    },
    {
      "constant": true,
      "inputs": [],
      "name": "totalBorrows",
      "outputs": [
        {
          "internalType": "uint256",
          "name": "",
          "type": "uint256"
        }
      ],
      "payable": false,
      "stateMutability": "view",
      "type": "function"
    },
    {
      "constant": false,
      "inputs": [],
      "name": "totalBorrowsCurrent",
      "outputs": [
        {
          "internalType": "uint256",
          "name": "",
          "type": "uint256"
        }
      ],
      "payable": false,
      "stateMutability": "nonpayable",
      "type": "function"
    },
    {
      "constant": true,
      "inputs": [],
      "name": "totalReserves",
      "outputs": [
        {
          "internalType": "uint256",
          "name": "",
          "type": "uint256"
        }
      ],
      "payable": false,
      "stateMutability": "view",
      "type": "function"
    },
    {
      "constant": true,
      "inputs": [],
      "name": "totalSupply",
      "outputs": [
        {
          "internalType": "uint256",
          "name": "",
          "type": "uint256"
        }
      ],
      "payable": false,
      "stateMutability": "view",
      "type": "function"
    },
    {
      "constant": false,
      "inputs": [
        {
          "internalType": "address",
          "name": "dst",
          "type": "address"
        },
        {
          "internalType": "uint256",
          "name": "amount",
          "type": "uint256"
        }
      ],
      "name": "transfer",
      "outputs": [
        {
          "internalType": "bool",
          "name": "",
          "type": "bool"
        }
      ],
      "payable": false,
      "stateMutability": "nonpayable",
      "type": "function"
    },
    {
      "constant": false,
      "inputs": [
        {
          "internalType": "address",
          "name": "src",
          "type": "address"
        },
        {
          "internalType": "address",
          "name": "dst",
          "type": "address"
        },
        {
          "internalType": "uint256",
          "name": "amount",
          "type": "uint256"
        }
      ],
      "name": "transferFrom",
      "outputs": [
        {
          "internalType": "bool",
          "name": "",
          "type": "bool"
        }
      ],
      "payable": false,
      "stateMutability": "nonpayable",
      "type": "function"
    },
    {
      "constant": true,
      "inputs": [],
      "name": "underlying",
      "outputs": [
        {
          "internalType": "address",
          "name": "",
          "type": "address"
        }
      ],
      "payable": false,
      "stateMutability": "view",
      "type": "function"
    }
  ],
  "bytecode": {
    "object": "0x6080604052666379da05b600006011553480156200001c57600080fd5b50604051620025ba380380620025ba83398181016040526101208110156200004357600080fd5b81516020830151604080850151606086015160808701805193519597949692959194919392820192846401000000008211156200007f57600080fd5b9083019060208201858111156200009557600080fd5b8251640100000000811182820188101715620000b057600080fd5b82525081516020918201929091019080838360005b83811015620000df578181015183820152602001620000c5565b50505050905090810190601f1680156200010d5780820380516001836020036101000a031916815260200191505b50604052602001805160405193929190846401000000008211156200013157600080fd5b9083019060208201858111156200014757600080fd5b82516401000000008111828201881017156200016257600080fd5b82525081516020918201929091019080838360005b838110156200019157818101518382015260200162000177565b50505050905090810190601f168015620001bf5780820380516001836020036101000a031916815260200191505b50604081815260208301519083015160609093018051919593949293929184640100000000821115620001f157600080fd5b9083019060208201858111156200020757600080fd5b82516401000000008111828201881017156200022257600080fd5b82525081516020918201929091019080838360005b838110156200025157818101518382015260200162000237565b50505050905090810190601f1680156200027f5780820380516001836020036101000a031916815260200191505b50604081905260038054610100600160a81b03191633610100021790556001600160a01b038d8116602483019081528d82166044840152908c166064830152608482018b905260ff881660e483015260e060a483019081528a516101048401528a51620003fd96508895508f94508e938e938e938e938e938e93929160c48201916101240190602088019080838360005b838110156200032a57818101518382015260200162000310565b50505050905090810190601f168015620003585780820380516001836020036101000a031916815260200191505b50838103825285518152855160209182019187019080838360005b838110156200038d57818101518382015260200162000373565b50505050905090810190601f168015620003bb5780820380516001836020036101000a031916815260200191505b5060408051601f198184030181529190526020810180516001600160e01b03908116631a31d46560e01b17909152909a506200043c1698505050505050505050565b5062000415826000836001600160e01b036200050316565b505060038054610100600160a81b031916326101000217905550620006e495505050505050565b606060006060846001600160a01b0316846040518082805190602001908083835b602083106200047e5780518252601f1990920191602091820191016200045d565b6001836020036101000a038019825116818451168082178552505050505050905001915050600060405180830381855af49150503d8060008114620004e0576040519150601f19603f3d011682016040523d82523d6000602084013e620004e5565b606091505b50915091506000821415620004fb573d60208201fd5b949350505050565b60035461010090046001600160a01b03163314620005535760405162461bcd60e51b8152600401808060200182810382526039815260200180620025816039913960400191505060405180910390fd5b811562000595576040805160048152602481019091526020810180516001600160e01b0390811663153ab50560e01b17909152620005939190620006ba16565b505b601380546001600160a01b038581166001600160a01b031983161790925560405160206024820181815285516044840152855194909316936200066b938693909283926064909201919085019080838360005b8381101562000602578181015183820152602001620005e8565b50505050905090810190601f168015620006305780820380516001836020036101000a031916815260200191505b5060408051601f198184030181529190526020810180516001600160e01b03908116630adccee560e31b17909152909350620006ba16915050565b50601354604080516001600160a01b038085168252909216602083015280517fd604de94d45953f9138079ec1b82d533cb2160c906d1076d1f7ed54befbca97a9281900390910190a150505050565b601354606090620006de906001600160a01b0316836001600160e01b036200043c16565b92915050565b611e8d80620006f46000396000f3fe6080604052600436106102ff5760003560e01c806370a0823111610190578063bd6d894d116100dc578063f2b3abbd11610095578063f851a4401161006f578063f851a44014610d4b578063f8f9da2814610d60578063fca7820b14610d75578063fe9c44ae14610d9f576102ff565b8063f2b3abbd14610cc0578063f3fdb15a14610cf3578063f5e3c46214610d08576102ff565b8063bd6d894d14610bae578063c37f68e214610bc3578063c5ebeaec14610c1c578063db006a7514610c46578063dd62ed3e14610c70578063e9c714f214610cab576102ff565b806395dd919311610149578063aa5af0fd11610123578063aa5af0fd14610b0e578063ae9d70b014610b23578063b2a02ff114610b38578063b71d1a0c14610b7b576102ff565b806395dd919314610a8d578063a6afed9514610ac0578063a9059cbb14610ad5576102ff565b806370a08231146109c757806373acee98146109fa5780638303084614610a0f578063852a12e314610a395780638f840ddd14610a6357806395d89b4114610a78576102ff565b80633b1d21a21161024f5780635c60da1b116102085780636752e702116101e25780636752e7021461095657806367f68fac1461096b5780636c540baf1461099d5780636f307dc3146109b2576102ff565b80635c60da1b146109025780635fe3b56714610917578063601a0bf11461092c576102ff565b80633b1d21a2146107005780633e941010146107155780634487152f1461073f5780634576b5db146107f057806347bd371814610823578063555bcc4014610838576102ff565b806318160ddd116102bc5780632608f818116102965780632608f818146106385780632678224714610671578063313ce567146106a25780633af9e669146106cd576102ff565b806318160ddd146105cb578063182df0f5146105e057806323b872dd146105f5576102ff565b806306fdde03146103bf5780630933c1ed14610449578063095ea7b3146104fa5780630e75270214610547578063173b99041461058357806317bfdfbc14610598575b341561033c5760405162461bcd60e51b8152600401808060200182810382526037815260200180611de96037913960400191505060405180910390fd5b6013546040516000916001600160a01b031690829036908083838082843760405192019450600093509091505080830381855af49150503d806000811461039f576040519150601f19603f3d011682016040523d82523d6000602084013e6103a4565b606091505b505090506040513d6000823e8180156103bb573d82f35b3d82fd5b3480156103cb57600080fd5b506103d4610db4565b6040805160208082528351818301528351919283929083019185019080838360005b8381101561040e5781810151838201526020016103f6565b50505050905090810190601f16801561043b5780820380516001836020036101000a031916815260200191505b509250505060405180910390f35b34801561045557600080fd5b506103d46004803603602081101561046c57600080fd5b810190602081018135600160201b81111561048657600080fd5b82018360208201111561049857600080fd5b803590602001918460018302840111600160201b831117156104b957600080fd5b91908080601f016020809104026020016040519081016040528093929190818152602001838380828437600092019190915250929550610e41945050505050565b34801561050657600080fd5b506105336004803603604081101561051d57600080fd5b506001600160a01b038135169060200135610e60565b604080519115158252519081900360200190f35b34801561055357600080fd5b506105716004803603602081101561056a57600080fd5b5035610ed7565b60408051918252519081900360200190f35b34801561058f57600080fd5b50610571610f3e565b3480156105a457600080fd5b50610571600480360360208110156105bb57600080fd5b50356001600160a01b0316610f44565b3480156105d757600080fd5b50610571610f96565b3480156105ec57600080fd5b50610571610f9c565b34801561060157600080fd5b506105336004803603606081101561061857600080fd5b506001600160a01b03813581169160208101359091169060400135610ff3565b34801561064457600080fd5b506105716004803603604081101561065b57600080fd5b506001600160a01b038135169060200135611073565b34801561067d57600080fd5b506106866110c9565b604080516001600160a01b039092168252519081900360200190f35b3480156106ae57600080fd5b506106b76110d8565b6040805160ff9092168252519081900360200190f35b3480156106d957600080fd5b50610571600480360360208110156106f057600080fd5b50356001600160a01b03166110e1565b34801561070c57600080fd5b50610571611133565b34801561072157600080fd5b506105716004803603602081101561073857600080fd5b503561116b565b34801561074b57600080fd5b506103d46004803603602081101561076257600080fd5b810190602081018135600160201b81111561077c57600080fd5b82018360208201111561078e57600080fd5b803590602001918460018302840111600160201b831117156107af57600080fd5b91908080601f0160208091040260200160405190810160405280939291908181526020018383808284376000920191909152509295506111b2945050505050565b3480156107fc57600080fd5b506105716004803603602081101561081357600080fd5b50356001600160a01b03166113d1565b34801561082f57600080fd5b50610571611423565b34801561084457600080fd5b506109006004803603606081101561085b57600080fd5b6001600160a01b03823516916020810135151591810190606081016040820135600160201b81111561088c57600080fd5b82018360208201111561089e57600080fd5b803590602001918460018302840111600160201b831117156108bf57600080fd5b91908080601f016020809104026020016040519081016040528093929190818152602001838380828437600092019190915250929550611429945050505050565b005b34801561090e57600080fd5b506106866115cc565b34801561092357600080fd5b506106866115db565b34801561093857600080fd5b506105716004803603602081101561094f57600080fd5b50356115ea565b34801561096257600080fd5b50610571611631565b34801561097757600080fd5b506105716004803603604081101561098e57600080fd5b50803590602001351515611637565b3480156109a957600080fd5b50610571611689565b3480156109be57600080fd5b5061068661168f565b3480156109d357600080fd5b50610571600480360360208110156109ea57600080fd5b50356001600160a01b031661169e565b348015610a0657600080fd5b506105716116f0565b348015610a1b57600080fd5b5061057160048036036020811015610a3257600080fd5b5035611728565b348015610a4557600080fd5b5061057160048036036020811015610a5c57600080fd5b503561176f565b348015610a6f57600080fd5b506105716117b6565b348015610a8457600080fd5b506103d46117bc565b348015610a9957600080fd5b5061057160048036036020811015610ab057600080fd5b50356001600160a01b0316611814565b348015610acc57600080fd5b50610571611866565b348015610ae157600080fd5b5061053360048036036040811015610af857600080fd5b506001600160a01b03813516906020013561189e565b348015610b1a57600080fd5b506105716118f4565b348015610b2f57600080fd5b506105716118fa565b348015610b4457600080fd5b5061057160048036036060811015610b5b57600080fd5b506001600160a01b03813581169160208101359091169060400135611932565b348015610b8757600080fd5b5061057160048036036020811015610b9e57600080fd5b50356001600160a01b0316611990565b348015610bba57600080fd5b506105716119e2565b348015610bcf57600080fd5b50610bf660048036036020811015610be657600080fd5b50356001600160a01b0316611a1a565b604080519485526020850193909352838301919091526060830152519081900360800190f35b348015610c2857600080fd5b5061057160048036036020811015610c3f57600080fd5b5035611aac565b348015610c5257600080fd5b5061057160048036036020811015610c6957600080fd5b5035611af3565b348015610c7c57600080fd5b5061057160048036036040811015610c9357600080fd5b506001600160a01b0381358116916020013516611b3a565b348015610cb757600080fd5b50610571611b94565b348015610ccc57600080fd5b5061057160048036036020811015610ce357600080fd5b50356001600160a01b0316611bcc565b348015610cff57600080fd5b50610686611c1e565b348015610d1457600080fd5b5061057160048036036060811015610d2b57600080fd5b506001600160a01b03813581169160208101359160409091013516611c2d565b348015610d5757600080fd5b50610686611c8e565b348015610d6c57600080fd5b50610571611ca2565b348015610d8157600080fd5b5061057160048036036020811015610d9857600080fd5b5035611cda565b348015610dab57600080fd5b50610533611d21565b60018054604080516020600284861615610100026000190190941693909304601f81018490048402820184019092528181529291830182828015610e395780601f10610e0e57610100808354040283529160200191610e39565b820191906000526020600020905b815481529060010190602001808311610e1c57829003601f168201915b505050505081565b601354606090610e5a906001600160a01b031683611d26565b92915050565b604080516001600160a01b038416602482015260448082018490528251808303909101815260649091019091526020810180516001600160e01b031663095ea7b360e01b179052600090606090610eb690610e41565b9050808060200190516020811015610ecd57600080fd5b5051949350505050565b6040805160248082018490528251808303909101815260449091019091526020810180516001600160e01b031663073a938160e11b179052600090606090610f1e90610e41565b9050808060200190516020811015610f3557600080fd5b50519392505050565b60085481565b604080516001600160a01b0383166024808301919091528251808303909101815260449091019091526020810180516001600160e01b03166305eff7ef60e21b179052600090606090610f1e90610e41565b600d5481565b6040805160048152602481019091526020810180516001600160e01b031663182df0f560e01b179052600090606090610fd4906111b2565b9050808060200190516020811015610feb57600080fd5b505191505090565b604080516001600160a01b0380861660248301528416604482015260648082018490528251808303909101815260849091019091526020810180516001600160e01b03166323b872dd60e01b17905260009060609061105190610e41565b905080806020019051602081101561106857600080fd5b505195945050505050565b604080516001600160a01b038416602482015260448082018490528251808303909101815260649091019091526020810180516001600160e01b03166304c11f0360e31b179052600090606090610eb690610e41565b6004546001600160a01b031681565b60035460ff1681565b604080516001600160a01b0383166024808301919091528251808303909101815260449091019091526020810180516001600160e01b0316633af9e66960e01b179052600090606090610f1e906111b2565b6040805160048152602481019091526020810180516001600160e01b0316631d8e90d160e11b179052600090606090610fd4906111b2565b6040805160248082018490528251808303909101815260449091019091526020810180516001600160e01b03166303e9410160e41b179052600090606090610f1e90610e41565b606060006060306001600160a01b0316846040516024018080602001828103825283818151815260200191508051906020019080838360005b838110156112035781810151838201526020016111eb565b50505050905090810190601f1680156112305780820380516001836020036101000a031916815260200191505b5060408051601f198184030181529181526020820180516001600160e01b0316630933c1ed60e01b178152905182519295509350839250908083835b6020831061128b5780518252601f19909201916020918201910161126c565b6001836020036101000a038019825116818451168082178552505050505050905001915050600060405180830381855afa9150503d80600081146112eb576040519150601f19603f3d011682016040523d82523d6000602084013e6112f0565b606091505b50915091506000821415611305573d60208201fd5b80806020019051602081101561131a57600080fd5b8101908080516040519392919084600160201b82111561133957600080fd5b90830190602082018581111561134e57600080fd5b8251600160201b81118282018810171561136757600080fd5b82525081516020918201929091019080838360005b8381101561139457818101518382015260200161137c565b50505050905090810190601f1680156113c15780820380516001836020036101000a031916815260200191505b5060405250505092505050919050565b604080516001600160a01b0383166024808301919091528251808303909101815260449091019091526020810180516001600160e01b0316634576b5db60e01b179052600090606090610f1e90610e41565b600b5481565b60035461010090046001600160a01b031633146114775760405162461bcd60e51b8152600401808060200182810382526039815260200180611e206039913960400191505060405180910390fd5b81156114b1576040805160048152602481019091526020810180516001600160e01b031663153ab50560e01b1790526114af90610e41565b505b601380546001600160a01b038581166001600160a01b0319831617909255604051602060248201818152855160448401528551949093169361157d938693909283926064909201919085019080838360005b8381101561151b578181015183820152602001611503565b50505050905090810190601f1680156115485780820380516001836020036101000a031916815260200191505b5060408051601f198184030181529190526020810180516001600160e01b0316630adccee560e31b1790529250610e41915050565b50601354604080516001600160a01b038085168252909216602083015280517fd604de94d45953f9138079ec1b82d533cb2160c906d1076d1f7ed54befbca97a9281900390910190a150505050565b6013546001600160a01b031681565b6005546001600160a01b031681565b6040805160248082018490528251808303909101815260449091019091526020810180516001600160e01b031663601a0bf160e01b179052600090606090610f1e90610e41565b60115481565b60408051602481018490528215156044808301919091528251808303909101815260649091019091526020810180516001600160e01b03166319fda3eb60e21b179052600090606090610eb690610e41565b60095481565b6012546001600160a01b031681565b604080516001600160a01b0383166024808301919091528251808303909101815260449091019091526020810180516001600160e01b03166370a0823160e01b179052600090606090610f1e906111b2565b6040805160048152602481019091526020810180516001600160e01b0316630e759dd360e31b179052600090606090610fd490610e41565b6040805160248082018490528251808303909101815260449091019091526020810180516001600160e01b0316634181842360e11b179052600090606090610f1e90610e41565b6040805160248082018490528251808303909101815260449091019091526020810180516001600160e01b031663852a12e360e01b179052600090606090610f1e90610e41565b600c5481565b6002805460408051602060018416156101000260001901909316849004601f81018490048402820184019092528181529291830182828015610e395780601f10610e0e57610100808354040283529160200191610e39565b604080516001600160a01b0383166024808301919091528251808303909101815260449091019091526020810180516001600160e01b03166395dd919360e01b179052600090606090610f1e906111b2565b6040805160048152602481019091526020810180516001600160e01b031663a6afed9560e01b179052600090606090610fd490610e41565b604080516001600160a01b038416602482015260448082018490528251808303909101815260649091019091526020810180516001600160e01b031663a9059cbb60e01b179052600090606090610eb690610e41565b600a5481565b6040805160048152602481019091526020810180516001600160e01b0316630ae9d70b60e41b179052600090606090610fd4906111b2565b604080516001600160a01b0380861660248301528416604482015260648082018490528251808303909101815260849091019091526020810180516001600160e01b031663b2a02ff160e01b17905260009060609061105190610e41565b604080516001600160a01b0383166024808301919091528251808303909101815260449091019091526020810180516001600160e01b0316632dc7468360e21b179052600090606090610f1e90610e41565b6040805160048152602481019091526020810180516001600160e01b031663bd6d894d60e01b179052600090606090610fd4906111b2565b604080516001600160a01b0383166024808301919091528251808303909101815260449091019091526020810180516001600160e01b03166361bfb47160e11b179052600090819081908190606090611a72906111b2565b9050808060200190516080811015611a8957600080fd5b508051602082015160408301516060909301519199909850919650945092505050565b6040805160248082018490528251808303909101815260449091019091526020810180516001600160e01b031663317afabb60e21b179052600090606090610f1e90610e41565b6040805160248082018490528251808303909101815260449091019091526020810180516001600160e01b031663db006a7560e01b179052600090606090610f1e90610e41565b604080516001600160a01b03808516602483015283166044808301919091528251808303909101815260649091019091526020810180516001600160e01b0316636eb1769f60e11b179052600090606090610eb6906111b2565b6040805160048152602481019091526020810180516001600160e01b03166374e38a7960e11b179052600090606090610fd490610e41565b604080516001600160a01b0383166024808301919091528251808303909101815260449091019091526020810180516001600160e01b031663f2b3abbd60e01b179052600090606090610f1e90610e41565b6006546001600160a01b031681565b604080516001600160a01b0380861660248301526044820185905283166064808301919091528251808303909101815260849091019091526020810180516001600160e01b0316637af1e23160e11b17905260009060609061105190610e41565b60035461010090046001600160a01b031681565b6040805160048152602481019091526020810180516001600160e01b0316631f1f3b4560e31b179052600090606090610fd4906111b2565b6040805160248082018490528251808303909101815260449091019091526020810180516001600160e01b031663fca7820b60e01b179052600090606090610f1e90610e41565b600181565b606060006060846001600160a01b0316846040518082805190602001908083835b60208310611d665780518252601f199092019160209182019101611d47565b6001836020036101000a038019825116818451168082178552505050505050905001915050600060405180830381855af49150503d8060008114611dc6576040519150601f19603f3d011682016040523d82523d6000602084013e611dcb565b606091505b50915091506000821415611de0573d60208201fd5b94935050505056fe43457263323044656c656761746f723a66616c6c6261636b3a2063616e6e6f742073656e642076616c756520746f2066616c6c6261636b43457263323044656c656761746f723a3a5f736574496d706c656d656e746174696f6e3a2043616c6c6572206d7573742062652061646d696ea265627a7a72315820ed12befeb522148837681f1ed7d742a380afc7fa11cb6bb519692c7cd672030f64736f6c6343000510003243457263323044656c656761746f723a3a5f736574496d706c656d656e746174696f6e3a2043616c6c6572206d7573742062652061646d696e",
    "linkReferences": {}
  }
}