{
  "abi": [
    {
      "inputs": [
        {
          "internalType": "address",
          "name": "_basket",
          "type": "address"
        },
        {
          "internalType": "address",
          "name": "_lendingRegistry",
          "type": "address"
        }
      ],
      "stateMutability": "nonpayable",
      "type": "constructor"
    },
    {
      "anonymous": false,
      "inputs": [
        {
          "indexed": true,
          "internalType": "address",
          "name": "previousOwner",
          "type": "address"
        },
        {
          "indexed": true,
          "internalType": "address",
          "name": "newOwner",
          "type": "address"
        }
      ],
      "name": "OwnershipTransferred",
      "type": "event"
    },
    {
      "inputs": [],
      "name": "decimals",
      "outputs": [
        {
          "internalType": "uint8",
          "name": "",
          "type": "uint8"
        }
      ],
      "stateMutability": "view",
      "type": "function"
    },
    {
      "inputs": [],
      "name": "latestAnswer",
      "outputs": [
        {
          "internalType": "uint256",
          "name": "usdPrice",
          "type": "uint256"
        }
      ],
      "stateMutability": "view",
      "type": "function"
    },
    {
      "inputs": [
        {
          "internalType": "address",
          "name": "",
          "type": "address"
        }
      ],
      "name": "linkFeeds",
      "outputs": [
        {
          "internalType": "contract IChainLinkOracle",
          "name": "",
          "type": "address"
        }
      ],
      "stateMutability": "view",
      "type": "function"
    },
    {
      "inputs": [],
      "name": "owner",
      "outputs": [
        {
          "internalType": "address",
          "name": "",
          "type": "address"
        }
      ],
      "stateMutability": "view",
      "type": "function"
    },
    {
      "inputs": [
        {
          "internalType": "address",
          "name": "_token",
          "type": "address"
        }
      ],
      "name": "removeTokenFeed",
      "outputs": [],
      "stateMutability": "nonpayable",
      "type": "function"
    },
    {
      "inputs": [],
      "name": "renounceOwnership",
      "outputs": [],
      "stateMutability": "nonpayable",
      "type": "function"
    },
    {
      "inputs": [
        {
          "internalType": "address",
          "name": "_token",
          "type": "address"
        },
        {
          "internalType": "address",
          "name": "_oracle",
          "type": "address"
        }
      ],
      "name": "setTokenFeed",
      "outputs": [],
      "stateMutability": "nonpayable",
      "type": "function"
    },
    {
      "inputs": [
        {
          "internalType": "address",
          "name": "newOwner",
          "type": "address"
        }
      ],
      "name": "transferOwnership",
      "outputs": [],
      "stateMutability": "nonpayable",
      "type": "function"
    }
  ],
  "bytecode": {
    "object": "0x60c060405234801561001057600080fd5b50604051610f58380380610f5883398101604081905261002f916100bb565b6100383361004f565b6001600160a01b039182166080521660a0526100ee565b600080546001600160a01b038381166001600160a01b0319831681178455604051919092169283917f8be0079c531659141344cd1fd0a4f28419497f9722a3daafe3b4186f6b6457e09190a35050565b80516001600160a01b03811681146100b657600080fd5b919050565b600080604083850312156100ce57600080fd5b6100d78361009f565b91506100e56020840161009f565b90509250929050565b60805160a051610e2961012f6000396000818161023901526102da01526000818161015c015281816104cf0152818161072a01526107d20152610e296000f3fe608060405234801561001057600080fd5b50600436106100885760003560e01c806387ef019a1161005b57806387ef019a1461010d5780638da5cb5b14610120578063eec5d84a14610131578063f2fde38b1461014457600080fd5b8063313ce5671461008d57806350d25bcd146100ac578063511ee14d146100c2578063715018a614610103575b600080fd5b610095601281565b60405160ff90911681526020015b60405180910390f35b6100b4610157565b6040519081526020016100a3565b6100eb6100d0366004610a83565b6001602052600090815260409020546001600160a01b031681565b6040516001600160a01b0390911681526020016100a3565b61010b610867565b005b61010b61011b366004610aa7565b6108a6565b6000546001600160a01b03166100eb565b61010b61013f366004610a83565b6108fe565b61010b610152366004610a83565b61094f565b6000807f00000000000000000000000000000000000000000000000000000000000000006001600160a01b031663aa6ca8086040518163ffffffff1660e01b8152600401600060405180830381865afa1580156101b8573d6000803e3d6000fd5b505050506040513d6000823e601f3d908101601f191682016040526101e09190810190610b06565b90506000805b82518160ff1610156107cb576000838260ff168151811061020957610209610bcb565b6020908102919091010151604051632aabce9960e11b81526001600160a01b0380831660048301529192506000917f000000000000000000000000000000000000000000000000000000000000000016906355579d3290602401602060405180830381865afa158015610280573d6000803e3d6000fd5b505050506040513d601f19601f820116820180604052508101906102a49190610be1565b90508160006001600160a01b038316156105db57604051632df6e47f60e21b81526001600160a01b0385811660048301526000917f00000000000000000000000000000000000000000000000000000000000000009091169063b7db91fc90602401602060405180830381865afa158015610323573d6000803e3d6000fd5b505050506040513d601f19601f820116820180604052508101906103479190610bfe565b6001600160a01b0380861660009081526001602090815260409182902054825163313ce56760e01b8152925190841696509394506104b8939287169263313ce5679260048082019392918290030181865afa1580156103aa573d6000803e3d6000fd5b505050506040513d601f19601f820116820180604052508101906103ce9190610c17565b6103d9906012610c50565b6103e490600a610d59565b836001600160a01b03166350d25bcd6040518163ffffffff1660e01b8152600401602060405180830381865afa158015610422573d6000803e3d6000fd5b505050506040513d601f19601f820116820180604052508101906104469190610bfe565b846001600160a01b031663313ce5676040518163ffffffff1660e01b8152600401602060405180830381865afa158015610484573d6000803e3d6000fd5b505050506040513d601f19601f820116820180604052508101906104a89190610c17565b6104b390600a610d59565b6109ea565b6040516370a0823160e01b81526001600160a01b037f0000000000000000000000000000000000000000000000000000000000000000811660048301526105bf91908616906370a0823190602401602060405180830381865afa158015610523573d6000803e3d6000fd5b505050506040513d601f19601f820116820180604052508101906105479190610bfe565b60405163269d294760e01b81526001600160a01b03898116600483015285169063269d294790602401602060405180830381865afa15801561058d573d6000803e3d6000fd5b505050506040513d601f19601f820116820180604052508101906105b19190610bfe565b670de0b6b3a76400006109ea565b6105c99190610d68565b6105d39088610d87565b9650506107b4565b506001600160a01b0380841660009081526001602090815260409182902054825163313ce56760e01b8152925190841693610713939086169263313ce567926004808401938290030181865afa158015610639573d6000803e3d6000fd5b505050506040513d601f19601f8201168201806040525081019061065d9190610c17565b610668906012610c50565b61067390600a610d59565b826001600160a01b03166350d25bcd6040518163ffffffff1660e01b8152600401602060405180830381865afa1580156106b1573d6000803e3d6000fd5b505050506040513d601f19601f820116820180604052508101906106d59190610bfe565b836001600160a01b031663313ce5676040518163ffffffff1660e01b8152600401602060405180830381865afa158015610484573d6000803e3d6000fd5b6040516370a0823160e01b81526001600160a01b037f0000000000000000000000000000000000000000000000000000000000000000811660048301528416906370a0823190602401602060405180830381865afa158015610779573d6000803e3d6000fd5b505050506040513d601f19601f8201168201806040525081019061079d9190610bfe565b6107a79190610d68565b6107b19087610d87565b95505b5050505080806107c390610d9f565b9150506101e6565b50610860817f00000000000000000000000000000000000000000000000000000000000000006001600160a01b03166318160ddd6040518163ffffffff1660e01b8152600401602060405180830381865afa15801561082e573d6000803e3d6000fd5b505050506040513d601f19601f820116820180604052508101906108529190610bfe565b670de0b6b3a7640000610a03565b9250505090565b6000546001600160a01b0316331461089a5760405162461bcd60e51b815260040161089190610dbe565b60405180910390fd5b6108a46000610a1e565b565b6000546001600160a01b031633146108d05760405162461bcd60e51b815260040161089190610dbe565b6001600160a01b03918216600090815260016020526040902080546001600160a01b03191691909216179055565b6000546001600160a01b031633146109285760405162461bcd60e51b815260040161089190610dbe565b6001600160a01b0316600090815260016020526040902080546001600160a01b0319169055565b6000546001600160a01b031633146109795760405162461bcd60e51b815260040161089190610dbe565b6001600160a01b0381166109de5760405162461bcd60e51b815260206004820152602660248201527f4f776e61626c653a206e6577206f776e657220697320746865207a65726f206160448201526564647265737360d01b6064820152608401610891565b6109e781610a1e565b50565b6000828484860204146109fc57600080fd5b5091020490565b600081848386020414610a1557600080fd5b50919091020490565b600080546001600160a01b038381166001600160a01b0319831681178455604051919092169283917f8be0079c531659141344cd1fd0a4f28419497f9722a3daafe3b4186f6b6457e09190a35050565b6001600160a01b03811681146109e757600080fd5b600060208284031215610a9557600080fd5b8135610aa081610a6e565b9392505050565b60008060408385031215610aba57600080fd5b8235610ac581610a6e565b91506020830135610ad581610a6e565b809150509250929050565b634e487b7160e01b600052604160045260246000fd5b8051610b0181610a6e565b919050565b60006020808385031215610b1957600080fd5b825167ffffffffffffffff80821115610b3157600080fd5b818501915085601f830112610b4557600080fd5b815181811115610b5757610b57610ae0565b8060051b604051601f19603f83011681018181108582111715610b7c57610b7c610ae0565b604052918252848201925083810185019188831115610b9a57600080fd5b938501935b82851015610bbf57610bb085610af6565b84529385019392850192610b9f565b98975050505050505050565b634e487b7160e01b600052603260045260246000fd5b600060208284031215610bf357600080fd5b8151610aa081610a6e565b600060208284031215610c1057600080fd5b5051919050565b600060208284031215610c2957600080fd5b815160ff81168114610aa057600080fd5b634e487b7160e01b600052601160045260246000fd5b600060ff821660ff841680821015610c6a57610c6a610c3a565b90039392505050565b600181815b80851115610cae578160001904821115610c9457610c94610c3a565b80851615610ca157918102915b93841c9390800290610c78565b509250929050565b600082610cc557506001610d53565b81610cd257506000610d53565b8160018114610ce85760028114610cf257610d0e565b6001915050610d53565b60ff841115610d0357610d03610c3a565b50506001821b610d53565b5060208310610133831016604e8410600b8410161715610d31575081810a610d53565b610d3b8383610c73565b8060001904821115610d4f57610d4f610c3a565b0290505b92915050565b6000610aa060ff841683610cb6565b6000816000190483118215151615610d8257610d82610c3a565b500290565b60008219821115610d9a57610d9a610c3a565b500190565b600060ff821660ff8103610db557610db5610c3a565b60010192915050565b6020808252818101527f4f776e61626c653a2063616c6c6572206973206e6f7420746865206f776e657260408201526060019056fea264697066735822122010491f61e544b65ab02de243e2710f305bc8123680d7fc5ee488affd0551454264736f6c634300080d0033",
    "linkReferences": {}
  }
}