{
  "abi": [
    {
      "inputs": [
        {
          "internalType": "address",
          "name": "_basket",
          "type": "address"
        },
        {
          "internalType": "address",
          "name": "_lendingRegistry",
          "type": "address"
        }
      ],
      "stateMutability": "nonpayable",
      "type": "constructor"
    },
    {
      "anonymous": false,
      "inputs": [
        {
          "indexed": true,
          "internalType": "address",
          "name": "previousOwner",
          "type": "address"
        },
        {
          "indexed": true,
          "internalType": "address",
          "name": "newOwner",
          "type": "address"
        }
      ],
      "name": "OwnershipTransferred",
      "type": "event"
    },
    {
      "anonymous": false,
      "inputs": [
        {
          "indexed": false,
          "internalType": "string",
          "name": "key",
          "type": "string"
        },
        {
          "indexed": false,
          "internalType": "address",
          "name": "val",
          "type": "address"
        }
      ],
      "name": "log_named_address",
      "type": "event"
    },
    {
      "anonymous": false,
      "inputs": [
        {
          "indexed": false,
          "internalType": "string",
          "name": "key",
          "type": "string"
        },
        {
          "indexed": false,
          "internalType": "uint256",
          "name": "val",
          "type": "uint256"
        }
      ],
      "name": "log_named_uint",
      "type": "event"
    },
    {
      "inputs": [],
      "name": "decimals",
      "outputs": [
        {
          "internalType": "uint8",
          "name": "",
          "type": "uint8"
        }
      ],
      "stateMutability": "view",
      "type": "function"
    },
    {
      "inputs": [],
      "name": "latestAnswer",
      "outputs": [
        {
          "internalType": "uint256",
          "name": "usdPrice",
          "type": "uint256"
        }
      ],
      "stateMutability": "view",
      "type": "function"
    },
    {
      "inputs": [],
      "name": "latestAnswerView",
      "outputs": [
        {
          "internalType": "uint256",
          "name": "usdPrice",
          "type": "uint256"
        }
      ],
      "stateMutability": "nonpayable",
      "type": "function"
    },
    {
      "inputs": [
        {
          "internalType": "address",
          "name": "",
          "type": "address"
        }
      ],
      "name": "linkFeeds",
      "outputs": [
        {
          "internalType": "contract IChainLinkOracle",
          "name": "",
          "type": "address"
        }
      ],
      "stateMutability": "view",
      "type": "function"
    },
    {
      "inputs": [],
      "name": "owner",
      "outputs": [
        {
          "internalType": "address",
          "name": "",
          "type": "address"
        }
      ],
      "stateMutability": "view",
      "type": "function"
    },
    {
      "inputs": [
        {
          "internalType": "address",
          "name": "_token",
          "type": "address"
        }
      ],
      "name": "removeTokenFeed",
      "outputs": [],
      "stateMutability": "nonpayable",
      "type": "function"
    },
    {
      "inputs": [],
      "name": "renounceOwnership",
      "outputs": [],
      "stateMutability": "nonpayable",
      "type": "function"
    },
    {
      "inputs": [
        {
          "internalType": "address",
          "name": "_token",
          "type": "address"
        },
        {
          "internalType": "address",
          "name": "_oracle",
          "type": "address"
        }
      ],
      "name": "setTokenFeed",
      "outputs": [],
      "stateMutability": "nonpayable",
      "type": "function"
    },
    {
      "inputs": [
        {
          "internalType": "address",
          "name": "newOwner",
          "type": "address"
        }
      ],
      "name": "transferOwnership",
      "outputs": [],
      "stateMutability": "nonpayable",
      "type": "function"
    }
  ],
  "bytecode": {
    "object": "0x60c06040523480156200001157600080fd5b50604051620017f0380380620017f08339810160408190526200003491620000c4565b6200003f3362000057565b6001600160a01b039182166080521660a052620000fc565b600080546001600160a01b038381166001600160a01b0319831681178455604051919092169283917f8be0079c531659141344cd1fd0a4f28419497f9722a3daafe3b4186f6b6457e09190a35050565b80516001600160a01b0381168114620000bf57600080fd5b919050565b60008060408385031215620000d857600080fd5b620000e383620000a7565b9150620000f360208401620000a7565b90509250929050565b60805160a0516116736200017d6000396000818161024c015281816102ed015281816109d30152610a7401526000818161016f015281816103eb0152818161071d015281816107c5015281816108f601528181610b7201528181610c2401528181610e5701528181610f240152818161102701526110cc01526116736000f3fe608060405234801561001057600080fd5b50600436106100935760003560e01c806387ef019a1161006657806387ef019a146101185780638da5cb5b1461012b578063c86b45d31461013c578063eec5d84a14610144578063f2fde38b1461015757600080fd5b8063313ce5671461009857806350d25bcd146100b7578063511ee14d146100cd578063715018a61461010e575b600080fd5b6100a0601281565b60405160ff90911681526020015b60405180910390f35b6100bf61016a565b6040519081526020016100ae565b6100f66100db3660046112ad565b6001602052600090815260409020546001600160a01b031681565b6040516001600160a01b0390911681526020016100ae565b61011661085a565b005b6101166101263660046112d1565b610899565b6000546001600160a01b03166100f6565b6100bf6108f1565b6101166101523660046112ad565b611128565b6101166101653660046112ad565b611179565b6000807f00000000000000000000000000000000000000000000000000000000000000006001600160a01b031663aa6ca8086040518163ffffffff1660e01b8152600401600060405180830381865afa1580156101cb573d6000803e3d6000fd5b505050506040513d6000823e601f3d908101601f191682016040526101f39190810190611330565b90506000805b82518160ff1610156107be576000838260ff168151811061021c5761021c6113f5565b6020908102919091010151604051632aabce9960e11b81526001600160a01b0380831660048301529192506000917f000000000000000000000000000000000000000000000000000000000000000016906355579d3290602401602060405180830381865afa158015610293573d6000803e3d6000fd5b505050506040513d601f19601f820116820180604052508101906102b7919061140b565b90508160006001600160a01b038316156105ce57604051632df6e47f60e21b81526001600160a01b0385811660048301526000917f00000000000000000000000000000000000000000000000000000000000000009091169063f8b7f42290829063b7db91fc90602401602060405180830381865afa15801561033e573d6000803e3d6000fd5b505050506040513d601f19601f820116820180604052508101906103629190611428565b6040518263ffffffff1660e01b815260040161038091815260200190565b602060405180830381865afa15801561039d573d6000803e3d6000fd5b505050506040513d601f19601f820116820180604052508101906103c1919061140b565b6001600160a01b03858116600090815260016020526040908190205490516370a0823160e01b81527f00000000000000000000000000000000000000000000000000000000000000008316600482015290821694509192506105bc916104e8918616906370a08231906024015b602060405180830381865afa15801561044b573d6000803e3d6000fd5b505050506040513d601f19601f8201168201806040525081019061046f9190611428565b60405163269d294760e01b81526001600160a01b03898116600483015285169063269d2947906024015b602060405180830381865afa1580156104b6573d6000803e3d6000fd5b505050506040513d601f19601f820116820180604052508101906104da9190611428565b670de0b6b3a7640000611214565b836001600160a01b03166350d25bcd6040518163ffffffff1660e01b8152600401602060405180830381865afa158015610526573d6000803e3d6000fd5b505050506040513d601f19601f8201168201806040525081019061054a9190611428565b846001600160a01b031663313ce5676040518163ffffffff1660e01b8152600401602060405180830381865afa158015610588573d6000803e3d6000fd5b505050506040513d601f19601f820116820180604052508101906105ac9190611441565b6105b790600a611560565b611214565b6105c6908861156f565b9650506107a7565b506001600160a01b0380841660009081526001602090815260409182902054825163313ce56760e01b8152925190841693610706939086169263313ce567926004808401938290030181865afa15801561062c573d6000803e3d6000fd5b505050506040513d601f19601f820116820180604052508101906106509190611441565b61065b906012611587565b61066690600a611560565b826001600160a01b03166350d25bcd6040518163ffffffff1660e01b8152600401602060405180830381865afa1580156106a4573d6000803e3d6000fd5b505050506040513d601f19601f820116820180604052508101906106c89190611428565b836001600160a01b031663313ce5676040518163ffffffff1660e01b8152600401602060405180830381865afa158015610588573d6000803e3d6000fd5b6040516370a0823160e01b81526001600160a01b037f0000000000000000000000000000000000000000000000000000000000000000811660048301528416906370a0823190602401602060405180830381865afa15801561076c573d6000803e3d6000fd5b505050506040513d601f19601f820116820180604052508101906107909190611428565b61079a91906115aa565b6107a4908761156f565b95505b5050505080806107b6906115c9565b9150506101f9565b50610853817f00000000000000000000000000000000000000000000000000000000000000006001600160a01b03166318160ddd6040518163ffffffff1660e01b8152600401602060405180830381865afa158015610821573d6000803e3d6000fd5b505050506040513d601f19601f820116820180604052508101906108459190611428565b670de0b6b3a764000061122d565b9250505090565b6000546001600160a01b0316331461088d5760405162461bcd60e51b8152600401610884906115e8565b60405180910390fd5b6108976000611248565b565b6000546001600160a01b031633146108c35760405162461bcd60e51b8152600401610884906115e8565b6001600160a01b03918216600090815260016020526040902080546001600160a01b03191691909216179055565b6000807f00000000000000000000000000000000000000000000000000000000000000006001600160a01b031663aa6ca8086040518163ffffffff1660e01b8152600401600060405180830381865afa158015610952573d6000803e3d6000fd5b505050506040513d6000823e601f3d908101601f1916820160405261097a9190810190611330565b90506000805b82518160ff161015610fc5576000838260ff16815181106109a3576109a36113f5565b6020908102919091010151604051632aabce9960e11b81526001600160a01b0380831660048301529192506000917f000000000000000000000000000000000000000000000000000000000000000016906355579d3290602401602060405180830381865afa158015610a1a573d6000803e3d6000fd5b505050506040513d601f19601f82011682018060405250810190610a3e919061140b565b90508160006001600160a01b03831615610eaf57604051632df6e47f60e21b81526001600160a01b0385811660048301526000917f00000000000000000000000000000000000000000000000000000000000000009091169063f8b7f42290829063b7db91fc90602401602060405180830381865afa158015610ac5573d6000803e3d6000fd5b505050506040513d601f19601f82011682018060405250810190610ae99190611428565b6040518263ffffffff1660e01b8152600401610b0791815260200190565b602060405180830381865afa158015610b24573d6000803e3d6000fd5b505050506040513d601f19601f82011682018060405250810190610b48919061140b565b6001600160a01b03858116600090815260016020526040908190205490516370a0823160e01b81527f000000000000000000000000000000000000000000000000000000000000000083166004820152908216945091925060008051602061161e83398151915291610bc5918616906370a082319060240161042e565b604051610c059190604080825260169082015275024b7102130b9b5b2ba102920a4afa0a6a7aaa72a1d160551b6060820152602081019190915260800190565b60405180910390a16040516370a0823160e01b81526001600160a01b037f00000000000000000000000000000000000000000000000000000000000000008116600483015260008051602061161e83398151915291610d7e91610cde91908716906370a0823190602401602060405180830381865afa158015610c8c573d6000803e3d6000fd5b505050506040513d601f19601f82011682018060405250810190610cb09190611428565b60405163269d294760e01b81526001600160a01b038a8116600483015286169063269d294790602401610499565b846001600160a01b03166350d25bcd6040518163ffffffff1660e01b8152600401602060405180830381865afa158015610d1c573d6000803e3d6000fd5b505050506040513d601f19601f82011682018060405250810190610d409190611428565b856001600160a01b031663313ce5676040518163ffffffff1660e01b8152600401602060405180830381865afa158015610588573d6000803e3d6000fd5b604051610dbd9190604080825260159082015274024b7102130b9b5b2ba102920a4afab20a62aa29d1605d1b6060820152602081019190915260800190565b60405180910390a1610e40836001600160a01b031663313ce5676040518163ffffffff1660e01b8152600401602060405180830381865afa158015610e06573d6000803e3d6000fd5b505050506040513d601f19601f82011682018060405250810190610e2a9190611441565b610e35906012611587565b6104e890600a611560565b6040516370a0823160e01b81526001600160a01b037f000000000000000000000000000000000000000000000000000000000000000081166004830152610e9391908616906370a082319060240161042e565b610e9d91906115aa565b610ea7908861156f565b965050610fae565b506001600160a01b0380841660009081526001602090815260409182902054825163313ce56760e01b8152925190841693610f0d939086169263313ce567926004808401938290030181865afa15801561062c573d6000803e3d6000fd5b6040516370a0823160e01b81526001600160a01b037f0000000000000000000000000000000000000000000000000000000000000000811660048301528416906370a0823190602401602060405180830381865afa158015610f73573d6000803e3d6000fd5b505050506040513d601f19601f82011682018060405250810190610f979190611428565b610fa191906115aa565b610fab908761156f565b95505b505050508080610fbd906115c9565b915050610980565b506040805181815260158183015274024b7102130b9b5b2ba1026b0b935b2ba21b0b81d1605d1b606082015260208101839052905160008051602061161e8339815191529181900360800190a160008051602061161e833981519152611083827f00000000000000000000000000000000000000000000000000000000000000006001600160a01b03166318160ddd6040518163ffffffff1660e01b8152600401602060405180830381865afa158015610821573d6000803e3d6000fd5b6040516110be9190604080825260119082015270024b72130b9b5b2ba10283934b1b2901d1607d1b6060820152602081019190915260800190565b60405180910390a1610853817f00000000000000000000000000000000000000000000000000000000000000006001600160a01b03166318160ddd6040518163ffffffff1660e01b8152600401602060405180830381865afa158015610821573d6000803e3d6000fd5b6000546001600160a01b031633146111525760405162461bcd60e51b8152600401610884906115e8565b6001600160a01b0316600090815260016020526040902080546001600160a01b0319169055565b6000546001600160a01b031633146111a35760405162461bcd60e51b8152600401610884906115e8565b6001600160a01b0381166112085760405162461bcd60e51b815260206004820152602660248201527f4f776e61626c653a206e6577206f776e657220697320746865207a65726f206160448201526564647265737360d01b6064820152608401610884565b61121181611248565b50565b60008284848602041461122657600080fd5b5091020490565b60008184838602041461123f57600080fd5b50919091020490565b600080546001600160a01b038381166001600160a01b0319831681178455604051919092169283917f8be0079c531659141344cd1fd0a4f28419497f9722a3daafe3b4186f6b6457e09190a35050565b6001600160a01b038116811461121157600080fd5b6000602082840312156112bf57600080fd5b81356112ca81611298565b9392505050565b600080604083850312156112e457600080fd5b82356112ef81611298565b915060208301356112ff81611298565b809150509250929050565b634e487b7160e01b600052604160045260246000fd5b805161132b81611298565b919050565b6000602080838503121561134357600080fd5b825167ffffffffffffffff8082111561135b57600080fd5b818501915085601f83011261136f57600080fd5b8151818111156113815761138161130a565b8060051b604051601f19603f830116810181811085821117156113a6576113a661130a565b6040529182528482019250838101850191888311156113c457600080fd5b938501935b828510156113e9576113da85611320565b845293850193928501926113c9565b98975050505050505050565b634e487b7160e01b600052603260045260246000fd5b60006020828403121561141d57600080fd5b81516112ca81611298565b60006020828403121561143a57600080fd5b5051919050565b60006020828403121561145357600080fd5b815160ff811681146112ca57600080fd5b634e487b7160e01b600052601160045260246000fd5b600181815b808511156114b557816000190482111561149b5761149b611464565b808516156114a857918102915b93841c939080029061147f565b509250929050565b6000826114cc5750600161155a565b816114d95750600061155a565b81600181146114ef57600281146114f957611515565b600191505061155a565b60ff84111561150a5761150a611464565b50506001821b61155a565b5060208310610133831016604e8410600b8410161715611538575081810a61155a565b611542838361147a565b806000190482111561155657611556611464565b0290505b92915050565b60006112ca60ff8416836114bd565b6000821982111561158257611582611464565b500190565b600060ff821660ff8416808210156115a1576115a1611464565b90039392505050565b60008160001904831182151516156115c4576115c4611464565b500290565b600060ff821660ff81036115df576115df611464565b60010192915050565b6020808252818101527f4f776e61626c653a2063616c6c6572206973206e6f7420746865206f776e657260408201526060019056feb2de2fbe801a0df6c0cbddfd448ba3c41d48a040ca35c56c8196ef0fcae721a8a264697066735822122082a18764cf61a4b8aa0ba099e37afbbcaeeac1d7624a65e1d21fc4eb41ffe5ff64736f6c634300080d0033",
    "linkReferences": {}
  },
  "methodIdentifiers": {
    "decimals()": "313ce567",
    "latestAnswer()": "50d25bcd",
    "latestAnswerView()": "c86b45d3",
    "linkFeeds(address)": "511ee14d",
    "owner()": "8da5cb5b",
    "removeTokenFeed(address)": "eec5d84a",
    "renounceOwnership()": "715018a6",
    "setTokenFeed(address,address)": "87ef019a",
    "transferOwnership(address)": "f2fde38b"
  },
  "id": 12
}