{
  "abi": [
    {
      "inputs": [
        {
          "internalType": "address",
          "name": "_basket",
          "type": "address"
        },
        {
          "internalType": "address",
          "name": "_lendingRegistry",
          "type": "address"
        }
      ],
      "stateMutability": "nonpayable",
      "type": "constructor"
    },
    {
      "anonymous": false,
      "inputs": [
        {
          "indexed": true,
          "internalType": "address",
          "name": "previousOwner",
          "type": "address"
        },
        {
          "indexed": true,
          "internalType": "address",
          "name": "newOwner",
          "type": "address"
        }
      ],
      "name": "OwnershipTransferred",
      "type": "event"
    },
    {
      "anonymous": false,
      "inputs": [
        {
          "indexed": false,
          "internalType": "string",
          "name": "key",
          "type": "string"
        },
        {
          "indexed": false,
          "internalType": "address",
          "name": "val",
          "type": "address"
        }
      ],
      "name": "log_named_address",
      "type": "event"
    },
    {
      "anonymous": false,
      "inputs": [
        {
          "indexed": false,
          "internalType": "string",
          "name": "key",
          "type": "string"
        },
        {
          "indexed": false,
          "internalType": "uint256",
          "name": "val",
          "type": "uint256"
        }
      ],
      "name": "log_named_uint",
      "type": "event"
    },
    {
      "inputs": [],
      "name": "decimals",
      "outputs": [
        {
          "internalType": "uint8",
          "name": "",
          "type": "uint8"
        }
      ],
      "stateMutability": "view",
      "type": "function"
    },
    {
      "inputs": [],
      "name": "latestAnswer",
      "outputs": [
        {
          "internalType": "uint256",
          "name": "usdPrice",
          "type": "uint256"
        }
      ],
      "stateMutability": "view",
      "type": "function"
    },
    {
      "inputs": [],
      "name": "latestAnswerView",
      "outputs": [
        {
          "internalType": "uint256",
          "name": "usdPrice",
          "type": "uint256"
        }
      ],
      "stateMutability": "nonpayable",
      "type": "function"
    },
    {
      "inputs": [
        {
          "internalType": "address",
          "name": "",
          "type": "address"
        }
      ],
      "name": "linkFeeds",
      "outputs": [
        {
          "internalType": "contract IChainLinkOracle",
          "name": "",
          "type": "address"
        }
      ],
      "stateMutability": "view",
      "type": "function"
    },
    {
      "inputs": [],
      "name": "owner",
      "outputs": [
        {
          "internalType": "address",
          "name": "",
          "type": "address"
        }
      ],
      "stateMutability": "view",
      "type": "function"
    },
    {
      "inputs": [
        {
          "internalType": "address",
          "name": "_token",
          "type": "address"
        }
      ],
      "name": "removeTokenFeed",
      "outputs": [],
      "stateMutability": "nonpayable",
      "type": "function"
    },
    {
      "inputs": [],
      "name": "renounceOwnership",
      "outputs": [],
      "stateMutability": "nonpayable",
      "type": "function"
    },
    {
      "inputs": [
        {
          "internalType": "address",
          "name": "_token",
          "type": "address"
        },
        {
          "internalType": "address",
          "name": "_oracle",
          "type": "address"
        }
      ],
      "name": "setTokenFeed",
      "outputs": [],
      "stateMutability": "nonpayable",
      "type": "function"
    },
    {
      "inputs": [
        {
          "internalType": "address",
          "name": "newOwner",
          "type": "address"
        }
      ],
      "name": "transferOwnership",
      "outputs": [],
      "stateMutability": "nonpayable",
      "type": "function"
    }
  ],
  "bytecode": {
    "object": "0x60c06040523480156200001157600080fd5b50604051620019e8380380620019e88339810160408190526200003491620000d8565b620000486200004262000067565b6200006b565b6001600160601b0319606092831b8116608052911b1660a0526200010f565b3390565b600080546001600160a01b038381166001600160a01b0319831681178455604051919092169283917f8be0079c531659141344cd1fd0a4f28419497f9722a3daafe3b4186f6b6457e09190a35050565b80516001600160a01b0381168114620000d357600080fd5b919050565b60008060408385031215620000eb578182fd5b620000f683620000bb565b91506200010660208401620000bb565b90509250929050565b60805160601c60a05160601c6118526200019660003960008181610220015281816102e801528181610abc0152610b8401526000818161014801528181610428015281816107a301528181610850015281816109e401528181610cd001528181610d3301528181610f5b0152818161101c015281816110fd015261116f01526118526000f3fe608060405234801561001057600080fd5b50600436106100935760003560e01c806387ef019a1161006657806387ef019a146100f55780638da5cb5b14610108578063c86b45d314610110578063eec5d84a14610118578063f2fde38b1461012b57610093565b8063313ce5671461009857806350d25bcd146100b6578063511ee14d146100cb578063715018a6146100eb575b600080fd5b6100a061013e565b6040516100ad919061161c565b60405180910390f35b6100be610143565b6040516100ad91906114bf565b6100de6100d9366004611335565b6108f4565b6040516100ad91906114ab565b6100f361090f565b005b6100f3610103366004611374565b610963565b6100de6109d0565b6100be6109df565b6100f3610126366004611335565b6111c6565b6100f3610139366004611335565b61122c565b601281565b6000807f00000000000000000000000000000000000000000000000000000000000000006001600160a01b031663aa6ca8086040518163ffffffff1660e01b815260040160006040518083038186803b15801561019f57600080fd5b505afa1580156101b3573d6000803e3d6000fd5b505050506040513d6000823e601f3d908101601f191682016040526101db91908101906113ac565b90506000805b82518160ff161015610849576000838260ff168151811061021257634e487b7160e01b600052603260045260246000fd5b6020026020010151905060007f00000000000000000000000000000000000000000000000000000000000000006001600160a01b03166355579d32836040518263ffffffff1660e01b815260040161026a91906114ab565b60206040518083038186803b15801561028257600080fd5b505afa158015610296573d6000803e3d6000fd5b505050506040513d601f19601f820116820180604052508101906102ba9190611358565b90508160006001600160a01b0383161561062e57604051632df6e47f60e21b81526000906001600160a01b037f0000000000000000000000000000000000000000000000000000000000000000169063f8b7f42290829063b7db91fc90610325908a906004016114ab565b60206040518083038186803b15801561033d57600080fd5b505afa158015610351573d6000803e3d6000fd5b505050506040513d601f19601f820116820180604052508101906103759190611472565b6040518263ffffffff1660e01b815260040161039191906114bf565b60206040518083038186803b1580156103a957600080fd5b505afa1580156103bd573d6000803e3d6000fd5b505050506040513d601f19601f820116820180604052508101906103e19190611358565b6001600160a01b03808616600090815260016020526040908190205490516370a0823160e01b8152908216945091925061061c9161052a918616906370a0823190610450907f0000000000000000000000000000000000000000000000000000000000000000906004016114ab565b60206040518083038186803b15801561046857600080fd5b505afa15801561047c573d6000803e3d6000fd5b505050506040513d601f19601f820116820180604052508101906104a09190611472565b60405163269d294760e01b81526001600160a01b0385169063269d2947906104cc908b906004016114ab565b60206040518083038186803b1580156104e457600080fd5b505afa1580156104f8573d6000803e3d6000fd5b505050506040513d601f19601f8201168201806040525081019061051c9190611472565b670de0b6b3a764000061129d565b836001600160a01b03166350d25bcd6040518163ffffffff1660e01b815260040160206040518083038186803b15801561056357600080fd5b505afa158015610577573d6000803e3d6000fd5b505050506040513d601f19601f8201168201806040525081019061059b9190611472565b846001600160a01b031663313ce5676040518163ffffffff1660e01b815260040160206040518083038186803b1580156105d457600080fd5b505afa1580156105e8573d6000803e3d6000fd5b505050506040513d601f19601f8201168201806040525081019061060c919061148a565b61061790600a611688565b61129d565b610626908861162a565b965050610832565b506001600160a01b0380841660009081526001602090815260409182902054825163313ce56760e01b815292519084169361077f939086169263313ce56792600480840193829003018186803b15801561068757600080fd5b505afa15801561069b573d6000803e3d6000fd5b505050506040513d601f19601f820116820180604052508101906106bf919061148a565b6106ca906012611778565b6106d590600a611688565b826001600160a01b03166350d25bcd6040518163ffffffff1660e01b815260040160206040518083038186803b15801561070e57600080fd5b505afa158015610722573d6000803e3d6000fd5b505050506040513d601f19601f820116820180604052508101906107469190611472565b836001600160a01b031663313ce5676040518163ffffffff1660e01b815260040160206040518083038186803b1580156105d457600080fd5b6040516370a0823160e01b81526001600160a01b038416906370a08231906107cb907f0000000000000000000000000000000000000000000000000000000000000000906004016114ab565b60206040518083038186803b1580156107e357600080fd5b505afa1580156107f7573d6000803e3d6000fd5b505050506040513d601f19601f8201168201806040525081019061081b9190611472565b6108259190611759565b61082f908761162a565b95505b5050505080806108419061179b565b9150506101e1565b506108ed817f00000000000000000000000000000000000000000000000000000000000000006001600160a01b03166318160ddd6040518163ffffffff1660e01b815260040160206040518083038186803b1580156108a757600080fd5b505afa1580156108bb573d6000803e3d6000fd5b505050506040513d601f19601f820116820180604052508101906108df9190611472565b670de0b6b3a76400006112b6565b9250505090565b6001602052600090815260409020546001600160a01b031681565b6109176112d1565b6001600160a01b03166109286109d0565b6001600160a01b0316146109575760405162461bcd60e51b815260040161094e906115b4565b60405180910390fd5b61096160006112d5565b565b61096b6112d1565b6001600160a01b031661097c6109d0565b6001600160a01b0316146109a25760405162461bcd60e51b815260040161094e906115b4565b6001600160a01b03918216600090815260016020526040902080546001600160a01b03191691909216179055565b6000546001600160a01b031690565b6000807f00000000000000000000000000000000000000000000000000000000000000006001600160a01b031663aa6ca8086040518163ffffffff1660e01b815260040160006040518083038186803b158015610a3b57600080fd5b505afa158015610a4f573d6000803e3d6000fd5b505050506040513d6000823e601f3d908101601f19168201604052610a7791908101906113ac565b90506000805b82518160ff1610156110c2576000838260ff1681518110610aae57634e487b7160e01b600052603260045260246000fd5b6020026020010151905060007f00000000000000000000000000000000000000000000000000000000000000006001600160a01b03166355579d32836040518263ffffffff1660e01b8152600401610b0691906114ab565b60206040518083038186803b158015610b1e57600080fd5b505afa158015610b32573d6000803e3d6000fd5b505050506040513d601f19601f82011682018060405250810190610b569190611358565b90508160006001600160a01b03831615610f9f57604051632df6e47f60e21b81526000906001600160a01b037f0000000000000000000000000000000000000000000000000000000000000000169063f8b7f42290829063b7db91fc90610bc1908a906004016114ab565b60206040518083038186803b158015610bd957600080fd5b505afa158015610bed573d6000803e3d6000fd5b505050506040513d601f19601f82011682018060405250810190610c119190611472565b6040518263ffffffff1660e01b8152600401610c2d91906114bf565b60206040518083038186803b158015610c4557600080fd5b505afa158015610c59573d6000803e3d6000fd5b505050506040513d601f19601f82011682018060405250810190610c7d9190611358565b6001600160a01b03808616600090815260016020526040908190205490516370a0823160e01b815290821694509192506000805160206117fd83398151915291610cf8918616906370a0823190610450907f0000000000000000000000000000000000000000000000000000000000000000906004016114ab565b604051610d05919061157c565b60405180910390a16000805160206117fd833981519152610e94610dea856001600160a01b03166370a082317f00000000000000000000000000000000000000000000000000000000000000006040518263ffffffff1660e01b8152600401610d6e91906114ab565b60206040518083038186803b158015610d8657600080fd5b505afa158015610d9a573d6000803e3d6000fd5b505050506040513d601f19601f82011682018060405250810190610dbe9190611472565b60405163269d294760e01b81526001600160a01b0386169063269d2947906104cc908c906004016114ab565b846001600160a01b03166350d25bcd6040518163ffffffff1660e01b815260040160206040518083038186803b158015610e2357600080fd5b505afa158015610e37573d6000803e3d6000fd5b505050506040513d601f19601f82011682018060405250810190610e5b9190611472565b856001600160a01b031663313ce5676040518163ffffffff1660e01b815260040160206040518083038186803b1580156105d457600080fd5b604051610ea19190611545565b60405180910390a1610f33836001600160a01b031663313ce5676040518163ffffffff1660e01b815260040160206040518083038186803b158015610ee557600080fd5b505afa158015610ef9573d6000803e3d6000fd5b505050506040513d601f19601f82011682018060405250810190610f1d919061148a565b610f28906012611778565b61052a90600a611688565b6040516370a0823160e01b8152610f83906001600160a01b038616906370a0823190610450907f0000000000000000000000000000000000000000000000000000000000000000906004016114ab565b610f8d9190611759565b610f97908861162a565b9650506110ab565b506001600160a01b0380841660009081526001602090815260409182902054825163313ce56760e01b8152925190841693610ff8939086169263313ce56792600480840193829003018186803b15801561068757600080fd5b6040516370a0823160e01b81526001600160a01b038416906370a0823190611044907f0000000000000000000000000000000000000000000000000000000000000000906004016114ab565b60206040518083038186803b15801561105c57600080fd5b505afa158015611070573d6000803e3d6000fd5b505050506040513d601f19601f820116820180604052508101906110949190611472565b61109e9190611759565b6110a8908761162a565b95505b5050505080806110ba9061179b565b915050610a7d565b506000805160206117fd833981519152816040516110e0919061150e565b60405180910390a16000805160206117fd833981519152611154827f00000000000000000000000000000000000000000000000000000000000000006001600160a01b03166318160ddd6040518163ffffffff1660e01b815260040160206040518083038186803b1580156108a757600080fd5b60405161116191906115e9565b60405180910390a16108ed817f00000000000000000000000000000000000000000000000000000000000000006001600160a01b03166318160ddd6040518163ffffffff1660e01b815260040160206040518083038186803b1580156108a757600080fd5b6111ce6112d1565b6001600160a01b03166111df6109d0565b6001600160a01b0316146112055760405162461bcd60e51b815260040161094e906115b4565b6001600160a01b0316600090815260016020526040902080546001600160a01b0319169055565b6112346112d1565b6001600160a01b03166112456109d0565b6001600160a01b03161461126b5760405162461bcd60e51b815260040161094e906115b4565b6001600160a01b0381166112915760405162461bcd60e51b815260040161094e906114c8565b61129a816112d5565b50565b6000828484860204146112af57600080fd5b5091020490565b6000818483860204146112c857600080fd5b50919091020490565b3390565b600080546001600160a01b038381166001600160a01b0319831681178455604051919092169283917f8be0079c531659141344cd1fd0a4f28419497f9722a3daafe3b4186f6b6457e09190a35050565b8051611330816117e7565b919050565b600060208284031215611346578081fd5b8135611351816117e7565b9392505050565b600060208284031215611369578081fd5b8151611351816117e7565b60008060408385031215611386578081fd5b8235611391816117e7565b915060208301356113a1816117e7565b809150509250929050565b600060208083850312156113be578182fd5b825167ffffffffffffffff808211156113d5578384fd5b818501915085601f8301126113e8578384fd5b8151818111156113fa576113fa6117d1565b838102604051601f19603f8301168101818110858211171561141e5761141e6117d1565b604052828152858101935084860182860187018a101561143c578788fd5b8795505b838610156114655761145181611325565b855260019590950194938601938601611440565b5098975050505050505050565b600060208284031215611483578081fd5b5051919050565b60006020828403121561149b578081fd5b815160ff81168114611351578182fd5b6001600160a01b0391909116815260200190565b90815260200190565b60208082526026908201527f4f776e61626c653a206e6577206f776e657220697320746865207a65726f206160408201526564647265737360d01b606082015260800190565b604080825260159082015274024b7102130b9b5b2ba1026b0b935b2ba21b0b81d1605d1b6060820152602081019190915260800190565b604080825260159082015274024b7102130b9b5b2ba102920a4afab20a62aa29d1605d1b6060820152602081019190915260800190565b604080825260169082015275024b7102130b9b5b2ba102920a4afa0a6a7aaa72a1d160551b6060820152602081019190915260800190565b6020808252818101527f4f776e61626c653a2063616c6c6572206973206e6f7420746865206f776e6572604082015260600190565b604080825260119082015270024b72130b9b5b2ba10283934b1b2901d1607d1b6060820152602081019190915260800190565b60ff91909116815260200190565b6000821982111561163d5761163d6117bb565b500190565b80825b6001808611611654575061167f565b818704821115611666576116666117bb565b8086161561167357918102915b9490941c938002611645565b94509492505050565b600061135160001960ff8516846000826116a457506001611351565b816116b157506000611351565b81600181146116c757600281146116d1576116fe565b6001915050611351565b60ff8411156116e2576116e26117bb565b6001841b9150848211156116f8576116f86117bb565b50611351565b5060208310610133831016604e8410600b8410161715611731575081810a8381111561172c5761172c6117bb565b611351565b61173e8484846001611642565b808604821115611750576117506117bb565b02949350505050565b6000816000190483118215151615611773576117736117bb565b500290565b600060ff821660ff841680821015611792576117926117bb565b90039392505050565b600060ff821660ff8114156117b2576117b26117bb565b60010192915050565b634e487b7160e01b600052601160045260246000fd5b634e487b7160e01b600052604160045260246000fd5b6001600160a01b038116811461129a57600080fdfeb2de2fbe801a0df6c0cbddfd448ba3c41d48a040ca35c56c8196ef0fcae721a8a26469706673582212204357a222ad44ef0a4e1f226cd8f94648191b42cd6efeed7efdc74817b20160c264736f6c63430008010033",
    "linkReferences": {}
  },
  "methodIdentifiers": {
    "decimals()": "313ce567",
    "latestAnswer()": "50d25bcd",
    "latestAnswerView()": "c86b45d3",
    "linkFeeds(address)": "511ee14d",
    "owner()": "8da5cb5b",
    "removeTokenFeed(address)": "eec5d84a",
    "renounceOwnership()": "715018a6",
    "setTokenFeed(address,address)": "87ef019a",
    "transferOwnership(address)": "f2fde38b"
  },
  "id": 11
}