{
  "abi": [
    {
      "inputs": [
        {
          "internalType": "address",
          "name": "_basket",
          "type": "address"
        },
        {
          "internalType": "address",
          "name": "_lendingRegistry",
          "type": "address"
        }
      ],
      "stateMutability": "nonpayable",
      "type": "constructor"
    },
    {
      "anonymous": false,
      "inputs": [
        {
          "indexed": true,
          "internalType": "address",
          "name": "previousOwner",
          "type": "address"
        },
        {
          "indexed": true,
          "internalType": "address",
          "name": "newOwner",
          "type": "address"
        }
      ],
      "name": "OwnershipTransferred",
      "type": "event"
    },
    {
      "anonymous": false,
      "inputs": [
        {
          "indexed": false,
          "internalType": "string",
          "name": "key",
          "type": "string"
        },
        {
          "indexed": false,
          "internalType": "address",
          "name": "val",
          "type": "address"
        }
      ],
      "name": "log_named_address",
      "type": "event"
    },
    {
      "anonymous": false,
      "inputs": [
        {
          "indexed": false,
          "internalType": "string",
          "name": "key",
          "type": "string"
        },
        {
          "indexed": false,
          "internalType": "uint256",
          "name": "val",
          "type": "uint256"
        }
      ],
      "name": "log_named_uint",
      "type": "event"
    },
    {
      "inputs": [],
      "name": "decimals",
      "outputs": [
        {
          "internalType": "uint8",
          "name": "",
          "type": "uint8"
        }
      ],
      "stateMutability": "view",
      "type": "function"
    },
    {
      "inputs": [],
      "name": "latestAnswer",
      "outputs": [
        {
          "internalType": "uint256",
          "name": "usdPrice",
          "type": "uint256"
        }
      ],
      "stateMutability": "view",
      "type": "function"
    },
    {
      "inputs": [
        {
          "internalType": "address",
          "name": "",
          "type": "address"
        }
      ],
      "name": "linkFeeds",
      "outputs": [
        {
          "internalType": "contract IChainLinkOracle",
          "name": "",
          "type": "address"
        }
      ],
      "stateMutability": "view",
      "type": "function"
    },
    {
      "inputs": [],
      "name": "owner",
      "outputs": [
        {
          "internalType": "address",
          "name": "",
          "type": "address"
        }
      ],
      "stateMutability": "view",
      "type": "function"
    },
    {
      "inputs": [
        {
          "internalType": "address",
          "name": "_token",
          "type": "address"
        }
      ],
      "name": "removeTokenFeed",
      "outputs": [],
      "stateMutability": "nonpayable",
      "type": "function"
    },
    {
      "inputs": [],
      "name": "renounceOwnership",
      "outputs": [],
      "stateMutability": "nonpayable",
      "type": "function"
    },
    {
      "inputs": [
        {
          "internalType": "address",
          "name": "_token",
          "type": "address"
        },
        {
          "internalType": "address",
          "name": "_oracle",
          "type": "address"
        }
      ],
      "name": "setTokenFeed",
      "outputs": [],
      "stateMutability": "nonpayable",
      "type": "function"
    },
    {
      "inputs": [
        {
          "internalType": "address",
          "name": "newOwner",
          "type": "address"
        }
      ],
      "name": "transferOwnership",
      "outputs": [],
      "stateMutability": "nonpayable",
      "type": "function"
    }
  ],
  "bytecode": {
    "object": "0x60c060405234801561001057600080fd5b50604051610fcf380380610fcf83398101604081905261002f916100cd565b61003f61003a61005d565b610061565b6001600160601b0319606092831b8116608052911b1660a0526100ff565b3390565b600080546001600160a01b038381166001600160a01b0319831681178455604051919092169283917f8be0079c531659141344cd1fd0a4f28419497f9722a3daafe3b4186f6b6457e09190a35050565b80516001600160a01b03811681146100c857600080fd5b919050565b600080604083850312156100df578182fd5b6100e8836100b1565b91506100f6602084016100b1565b90509250929050565b60805160601c60a05160601c610e896101466000396000818161020d01526102d5015260008181610135015281816104150152818161065c01526107a90152610e896000f3fe608060405234801561001057600080fd5b50600436106100885760003560e01c806387ef019a1161005b57806387ef019a146100ea5780638da5cb5b146100fd578063eec5d84a14610105578063f2fde38b1461011857610088565b8063313ce5671461008d57806350d25bcd146100ab578063511ee14d146100c0578063715018a6146100e0575b600080fd5b61009561012b565b6040516100a29190610cb5565b60405180910390f35b6100b3610130565b6040516100a29190610c31565b6100d36100ce366004610aa7565b61084d565b6040516100a29190610c1d565b6100e8610868565b005b6100e86100f8366004610ae6565b6108bc565b6100d3610929565b6100e8610113366004610aa7565b610938565b6100e8610126366004610aa7565b61099e565b601281565b6000807f00000000000000000000000000000000000000000000000000000000000000006001600160a01b031663aa6ca8086040518163ffffffff1660e01b815260040160006040518083038186803b15801561018c57600080fd5b505afa1580156101a0573d6000803e3d6000fd5b505050506040513d6000823e601f3d908101601f191682016040526101c89190810190610b1e565b90506000805b82518160ff1610156107a2576000838260ff16815181106101ff57634e487b7160e01b600052603260045260246000fd5b6020026020010151905060007f00000000000000000000000000000000000000000000000000000000000000006001600160a01b03166355579d32836040518263ffffffff1660e01b81526004016102579190610c1d565b60206040518083038186803b15801561026f57600080fd5b505afa158015610283573d6000803e3d6000fd5b505050506040513d601f19601f820116820180604052508101906102a79190610aca565b90508160006001600160a01b0383161561061b57604051632df6e47f60e21b81526000906001600160a01b037f0000000000000000000000000000000000000000000000000000000000000000169063f8b7f42290829063b7db91fc90610312908a90600401610c1d565b60206040518083038186803b15801561032a57600080fd5b505afa15801561033e573d6000803e3d6000fd5b505050506040513d601f19601f820116820180604052508101906103629190610be4565b6040518263ffffffff1660e01b815260040161037e9190610c31565b60206040518083038186803b15801561039657600080fd5b505afa1580156103aa573d6000803e3d6000fd5b505050506040513d601f19601f820116820180604052508101906103ce9190610aca565b6001600160a01b03808616600090815260016020526040908190205490516370a0823160e01b8152908216945091925061060991610517918616906370a082319061043d907f000000000000000000000000000000000000000000000000000000000000000090600401610c1d565b60206040518083038186803b15801561045557600080fd5b505afa158015610469573d6000803e3d6000fd5b505050506040513d601f19601f8201168201806040525081019061048d9190610be4565b60405163269d294760e01b81526001600160a01b0385169063269d2947906104b9908b90600401610c1d565b60206040518083038186803b1580156104d157600080fd5b505afa1580156104e5573d6000803e3d6000fd5b505050506040513d601f19601f820116820180604052508101906105099190610be4565b670de0b6b3a7640000610a0f565b836001600160a01b03166350d25bcd6040518163ffffffff1660e01b815260040160206040518083038186803b15801561055057600080fd5b505afa158015610564573d6000803e3d6000fd5b505050506040513d601f19601f820116820180604052508101906105889190610be4565b846001600160a01b031663313ce5676040518163ffffffff1660e01b815260040160206040518083038186803b1580156105c157600080fd5b505afa1580156105d5573d6000803e3d6000fd5b505050506040513d601f19601f820116820180604052508101906105f99190610bfc565b61060490600a610d21565b610a0f565b6106139088610cc3565b96505061078b565b506001600160a01b03808416600090815260016020526040908190205490516370a0823160e01b81529082169161077e91908416906370a0823190610684907f000000000000000000000000000000000000000000000000000000000000000090600401610c1d565b60206040518083038186803b15801561069c57600080fd5b505afa1580156106b0573d6000803e3d6000fd5b505050506040513d601f19601f820116820180604052508101906106d49190610be4565b826001600160a01b03166350d25bcd6040518163ffffffff1660e01b815260040160206040518083038186803b15801561070d57600080fd5b505afa158015610721573d6000803e3d6000fd5b505050506040513d601f19601f820116820180604052508101906107459190610be4565b836001600160a01b031663313ce5676040518163ffffffff1660e01b815260040160206040518083038186803b1580156105c157600080fd5b6107889087610cc3565b95505b50505050808061079a90610df2565b9150506101ce565b50610846817f00000000000000000000000000000000000000000000000000000000000000006001600160a01b03166318160ddd6040518163ffffffff1660e01b815260040160206040518083038186803b15801561080057600080fd5b505afa158015610814573d6000803e3d6000fd5b505050506040513d601f19601f820116820180604052508101906108389190610be4565b670de0b6b3a7640000610a28565b9250505090565b6001602052600090815260409020546001600160a01b031681565b610870610a43565b6001600160a01b0316610881610929565b6001600160a01b0316146108b05760405162461bcd60e51b81526004016108a790610c80565b60405180910390fd5b6108ba6000610a47565b565b6108c4610a43565b6001600160a01b03166108d5610929565b6001600160a01b0316146108fb5760405162461bcd60e51b81526004016108a790610c80565b6001600160a01b03918216600090815260016020526040902080546001600160a01b03191691909216179055565b6000546001600160a01b031690565b610940610a43565b6001600160a01b0316610951610929565b6001600160a01b0316146109775760405162461bcd60e51b81526004016108a790610c80565b6001600160a01b0316600090815260016020526040902080546001600160a01b0319169055565b6109a6610a43565b6001600160a01b03166109b7610929565b6001600160a01b0316146109dd5760405162461bcd60e51b81526004016108a790610c80565b6001600160a01b038116610a035760405162461bcd60e51b81526004016108a790610c3a565b610a0c81610a47565b50565b600082848486020414610a2157600080fd5b5091020490565b600081848386020414610a3a57600080fd5b50919091020490565b3390565b600080546001600160a01b038381166001600160a01b0319831681178455604051919092169283917f8be0079c531659141344cd1fd0a4f28419497f9722a3daafe3b4186f6b6457e09190a35050565b8051610aa281610e3e565b919050565b600060208284031215610ab8578081fd5b8135610ac381610e3e565b9392505050565b600060208284031215610adb578081fd5b8151610ac381610e3e565b60008060408385031215610af8578081fd5b8235610b0381610e3e565b91506020830135610b1381610e3e565b809150509250929050565b60006020808385031215610b30578182fd5b825167ffffffffffffffff80821115610b47578384fd5b818501915085601f830112610b5a578384fd5b815181811115610b6c57610b6c610e28565b838102604051601f19603f83011681018181108582111715610b9057610b90610e28565b604052828152858101935084860182860187018a1015610bae578788fd5b8795505b83861015610bd757610bc381610a97565b855260019590950194938601938601610bb2565b5098975050505050505050565b600060208284031215610bf5578081fd5b5051919050565b600060208284031215610c0d578081fd5b815160ff81168114610ac3578182fd5b6001600160a01b0391909116815260200190565b90815260200190565b60208082526026908201527f4f776e61626c653a206e6577206f776e657220697320746865207a65726f206160408201526564647265737360d01b606082015260800190565b6020808252818101527f4f776e61626c653a2063616c6c6572206973206e6f7420746865206f776e6572604082015260600190565b60ff91909116815260200190565b60008219821115610cd657610cd6610e12565b500190565b80825b6001808611610ced5750610d18565b818704821115610cff57610cff610e12565b80861615610d0c57918102915b9490941c938002610cde565b94509492505050565b6000610ac360001960ff851684600082610d3d57506001610ac3565b81610d4a57506000610ac3565b8160018114610d605760028114610d6a57610d97565b6001915050610ac3565b60ff841115610d7b57610d7b610e12565b6001841b915084821115610d9157610d91610e12565b50610ac3565b5060208310610133831016604e8410600b8410161715610dca575081810a83811115610dc557610dc5610e12565b610ac3565b610dd78484846001610cdb565b808604821115610de957610de9610e12565b02949350505050565b600060ff821660ff811415610e0957610e09610e12565b60010192915050565b634e487b7160e01b600052601160045260246000fd5b634e487b7160e01b600052604160045260246000fd5b6001600160a01b0381168114610a0c57600080fdfea26469706673582212200b6f09bd90a757ad48815ea6d3809b94c40de479e94e02dc87cf5b1726c8362f64736f6c63430008010033",
    "linkReferences": {}
  }
}