{
  "abi": [
    {
      "inputs": [],
      "name": "DAI",
      "outputs": [
        {
          "internalType": "address",
          "name": "",
          "type": "address"
        }
      ],
      "stateMutability": "view",
      "type": "function"
    },
    {
      "inputs": [],
      "name": "FEI",
      "outputs": [
        {
          "internalType": "address",
          "name": "",
          "type": "address"
        }
      ],
      "stateMutability": "view",
      "type": "function"
    },
    {
      "inputs": [],
      "name": "FRAX",
      "outputs": [
        {
          "internalType": "address",
          "name": "",
          "type": "address"
        }
      ],
      "stateMutability": "view",
      "type": "function"
    },
    {
      "inputs": [],
      "name": "RAI",
      "outputs": [
        {
          "internalType": "address",
          "name": "",
          "type": "address"
        }
      ],
      "stateMutability": "view",
      "type": "function"
    },
    {
      "inputs": [],
      "name": "aFEI",
      "outputs": [
        {
          "internalType": "address",
          "name": "",
          "type": "address"
        }
      ],
      "stateMutability": "view",
      "type": "function"
    },
    {
      "inputs": [],
      "name": "aFRAX",
      "outputs": [
        {
          "internalType": "address",
          "name": "",
          "type": "address"
        }
      ],
      "stateMutability": "view",
      "type": "function"
    },
    {
      "inputs": [],
      "name": "aRAI",
      "outputs": [
        {
          "internalType": "address",
          "name": "",
          "type": "address"
        }
      ],
      "stateMutability": "view",
      "type": "function"
    },
    {
      "inputs": [],
      "name": "bSTBL",
      "outputs": [
        {
          "internalType": "address",
          "name": "",
          "type": "address"
        }
      ],
      "stateMutability": "view",
      "type": "function"
    },
    {
      "inputs": [],
      "name": "bdETH",
      "outputs": [
        {
          "internalType": "contract ICToken",
          "name": "",
          "type": "address"
        }
      ],
      "stateMutability": "view",
      "type": "function"
    },
    {
      "inputs": [],
      "name": "bdUSD",
      "outputs": [
        {
          "internalType": "contract ICToken",
          "name": "",
          "type": "address"
        }
      ],
      "stateMutability": "view",
      "type": "function"
    },
    {
      "inputs": [],
      "name": "cDAI",
      "outputs": [
        {
          "internalType": "address",
          "name": "",
          "type": "address"
        }
      ],
      "stateMutability": "view",
      "type": "function"
    },
    {
      "inputs": [],
      "name": "lendingRegistry",
      "outputs": [
        {
          "internalType": "contract ILendingRegistry",
          "name": "",
          "type": "address"
        }
      ],
      "stateMutability": "view",
      "type": "function"
    },
    {
      "inputs": [],
      "name": "oracle",
      "outputs": [
        {
          "internalType": "address",
          "name": "",
          "type": "address"
        }
      ],
      "stateMutability": "view",
      "type": "function"
    },
    {
      "inputs": [],
      "name": "recipe",
      "outputs": [
        {
          "internalType": "contract IRecipe",
          "name": "",
          "type": "address"
        }
      ],
      "stateMutability": "view",
      "type": "function"
    },
    {
      "inputs": [],
      "name": "unitroller",
      "outputs": [
        {
          "internalType": "address",
          "name": "",
          "type": "address"
        }
      ],
      "stateMutability": "view",
      "type": "function"
    },
    {
      "inputs": [],
      "name": "usdcInterestRateModel",
      "outputs": [
        {
          "internalType": "address",
          "name": "",
          "type": "address"
        }
      ],
      "stateMutability": "view",
      "type": "function"
    }
  ],
  "bytecode": {
    "object": "0x6080604052600080546001600160a01b031990811673c0601094c0c88264ba285fef0a1b00ef13e793471790915560018054821673f635fdf9b36b557bd281aa02fdfaebec04cd084a179055600280548216735ee08f40b637417bcc9d2c51b62f4820ec9cf5d817905560038054821673c9bc48c72154ef3e5425641a3c747242112a46af17905560048054821673683923db55fead99a79fa01a27eec3cb19679cc3179055600580548216735d3a536e4d6dbd6114cc1ead35777bab948e364317905560068054821673d4937682df3c8aef4fe912a96a74121c0829e6641790556007805482167303ab458634910aad20ef5f1c8ee96f1d6ac5491917905560088054821673956f47f50a910163d8bf957cf5846d573e7f87ca179055600980548216736b175474e89094c44da98b954eedeac495271d0f179055600a8054821673853d955acef822db058eb8505911ed77f175b99e179055600b805482167308a2b7d713e388123dc6678168656659d297d397179055600c8054821673ebdc2d2a203c17895be0dacdf539eefc710eafd8179055600d80548216730be1fdc1e87127c4fe7c05bae6437e3cf90bf8d8179055600e8054821673681cf55f0276126fad8842133c839ab4d607e729179055600f8054909116736c9c5fd51b95c7bf365955867268ce2ec25deb5b1790553480156101fc57600080fd5b506102878061020c6000396000f3fe608060405234801561001057600080fd5b50600436106101005760003560e01c8063b0e4556f11610097578063e0bab4c411610066578063e0bab4c414610205578063eeb401a914610218578063fb5f135d1461022b578063fe0a0a5d1461023e57600080fd5b8063b0e4556f146101b9578063ba41cea8146101cc578063bad1d3da146101df578063dc99b69f146101f257600080fd5b8063650e5f8d116100d3578063650e5f8d1461016d5780636f6941b9146101805780637dc0d1d0146101935780638a1c4dbc146101a657600080fd5b806305336306146101055780630f7dbfa31461013457806336522b9b1461014757806336f585881461015a575b600080fd5b600054610118906001600160a01b031681565b6040516001600160a01b03909116815260200160405180910390f35b600654610118906001600160a01b031681565b600e54610118906001600160a01b031681565b600f54610118906001600160a01b031681565b600354610118906001600160a01b031681565b600554610118906001600160a01b031681565b600c54610118906001600160a01b031681565b600854610118906001600160a01b031681565b600a54610118906001600160a01b031681565b600454610118906001600160a01b031681565b600d54610118906001600160a01b031681565b600754610118906001600160a01b031681565b600954610118906001600160a01b031681565b600b54610118906001600160a01b031681565b600154610118906001600160a01b031681565b600254610118906001600160a01b03168156fea2646970667358221220f7abd85ecd55cc9aee866df20f558c9e73cb175703fe8494b834e126f48f4afe64736f6c634300080d0033",
    "linkReferences": {}
  }
}