{
  "abi": [
    {
      "inputs": [],
      "name": "DAI",
      "outputs": [
        {
          "internalType": "address",
          "name": "",
          "type": "address"
        }
      ],
      "stateMutability": "view",
      "type": "function"
    },
    {
      "inputs": [],
      "name": "DAIFeed",
      "outputs": [
        {
          "internalType": "address",
          "name": "",
          "type": "address"
        }
      ],
      "stateMutability": "view",
      "type": "function"
    },
    {
      "inputs": [],
      "name": "FEI",
      "outputs": [
        {
          "internalType": "address",
          "name": "",
          "type": "address"
        }
      ],
      "stateMutability": "view",
      "type": "function"
    },
    {
      "inputs": [],
      "name": "FEIFeed",
      "outputs": [
        {
          "internalType": "address",
          "name": "",
          "type": "address"
        }
      ],
      "stateMutability": "view",
      "type": "function"
    },
    {
      "inputs": [],
      "name": "FRAX",
      "outputs": [
        {
          "internalType": "address",
          "name": "",
          "type": "address"
        }
      ],
      "stateMutability": "view",
      "type": "function"
    },
    {
      "inputs": [],
      "name": "FRAXFeed",
      "outputs": [
        {
          "internalType": "address",
          "name": "",
          "type": "address"
        }
      ],
      "stateMutability": "view",
      "type": "function"
    },
    {
      "inputs": [],
      "name": "RAI",
      "outputs": [
        {
          "internalType": "address",
          "name": "",
          "type": "address"
        }
      ],
      "stateMutability": "view",
      "type": "function"
    },
    {
      "inputs": [],
      "name": "RAIFeed",
      "outputs": [
        {
          "internalType": "address",
          "name": "",
          "type": "address"
        }
      ],
      "stateMutability": "view",
      "type": "function"
    },
    {
      "inputs": [],
      "name": "aFEI",
      "outputs": [
        {
          "internalType": "address",
          "name": "",
          "type": "address"
        }
      ],
      "stateMutability": "view",
      "type": "function"
    },
    {
      "inputs": [],
      "name": "aFRAX",
      "outputs": [
        {
          "internalType": "address",
          "name": "",
          "type": "address"
        }
      ],
      "stateMutability": "view",
      "type": "function"
    },
    {
      "inputs": [],
      "name": "aRAI",
      "outputs": [
        {
          "internalType": "address",
          "name": "",
          "type": "address"
        }
      ],
      "stateMutability": "view",
      "type": "function"
    },
    {
      "inputs": [],
      "name": "bSTBL",
      "outputs": [
        {
          "internalType": "address",
          "name": "",
          "type": "address"
        }
      ],
      "stateMutability": "view",
      "type": "function"
    },
    {
      "inputs": [],
      "name": "bUSD",
      "outputs": [
        {
          "internalType": "address",
          "name": "",
          "type": "address"
        }
      ],
      "stateMutability": "view",
      "type": "function"
    },
    {
      "inputs": [],
      "name": "bdETH",
      "outputs": [
        {
          "internalType": "contract ICToken",
          "name": "",
          "type": "address"
        }
      ],
      "stateMutability": "view",
      "type": "function"
    },
    {
      "inputs": [],
      "name": "bdUSD",
      "outputs": [
        {
          "internalType": "contract ICToken",
          "name": "",
          "type": "address"
        }
      ],
      "stateMutability": "view",
      "type": "function"
    },
    {
      "inputs": [],
      "name": "cDAI",
      "outputs": [
        {
          "internalType": "address",
          "name": "",
          "type": "address"
        }
      ],
      "stateMutability": "view",
      "type": "function"
    },
    {
      "inputs": [],
      "name": "lendingRegistry",
      "outputs": [
        {
          "internalType": "contract ILendingRegistry",
          "name": "",
          "type": "address"
        }
      ],
      "stateMutability": "view",
      "type": "function"
    },
    {
      "inputs": [],
      "name": "oracle",
      "outputs": [
        {
          "internalType": "address",
          "name": "",
          "type": "address"
        }
      ],
      "stateMutability": "view",
      "type": "function"
    },
    {
      "inputs": [],
      "name": "recipe",
      "outputs": [
        {
          "internalType": "address",
          "name": "",
          "type": "address"
        }
      ],
      "stateMutability": "view",
      "type": "function"
    },
    {
      "inputs": [],
      "name": "unitroller",
      "outputs": [
        {
          "internalType": "address",
          "name": "",
          "type": "address"
        }
      ],
      "stateMutability": "view",
      "type": "function"
    },
    {
      "inputs": [],
      "name": "usdcInterestRateModel",
      "outputs": [
        {
          "internalType": "address",
          "name": "",
          "type": "address"
        }
      ],
      "stateMutability": "view",
      "type": "function"
    }
  ],
  "bytecode": {
    "object": "0x6080604052600080546001600160a01b031990811673c0601094c0c88264ba285fef0a1b00ef13e793471790915560018054821673f635fdf9b36b557bd281aa02fdfaebec04cd084a179055600280548216735ee08f40b637417bcc9d2c51b62f4820ec9cf5d8179055600380548216737945b0a6674b175695e5d1d08ae1e6f13744abb017905560048054821673c9bc48c72154ef3e5425641a3c747242112a46af17905560058054821673683923db55fead99a79fa01a27eec3cb19679cc3179055600680548216735d3a536e4d6dbd6114cc1ead35777bab948e364317905560078054821673d4937682df3c8aef4fe912a96a74121c0829e6641790556008805482167303ab458634910aad20ef5f1c8ee96f1d6ac5491917905560098054821673956f47f50a910163d8bf957cf5846d573e7f87ca179055600a80548216736b175474e89094c44da98b954eedeac495271d0f179055600b8054821673853d955acef822db058eb8505911ed77f175b99e179055600c8054821673483d36f6a1d063d580c7a24f9a42b346f3a69fbb179055600d805482167331e0a88fecb6ec0a411dbe0e9e76391498296ee9179055600e8054821673aed0c38402a5d19df6e4c03f4e2dced6e29c1ee9179055600f8054821673b9e1e3a9feff48998e45fa90847ed4d467e8bcfd1790556010805482167308a2b7d713e388123dc6678168656659d297d39717905560118054821673ebdc2d2a203c17895be0dacdf539eefc710eafd8179055601280548216730be1fdc1e87127c4fe7c05bae6437e3cf90bf8d817905560138054821673681cf55f0276126fad8842133c839ab4d607e72917905560148054909116736c9c5fd51b95c7bf365955867268ce2ec25deb5b17905534801561029257600080fd5b5061037f806102a26000396000f3fe608060405234801561001057600080fd5b50600436106101375760003560e01c80638cf0e204116100b8578063e0bab4c41161007c578063e0bab4c4146101ca578063e861b152146101d2578063ed87b540146101da578063eeb401a9146101e2578063fb5f135d146101ea578063fe0a0a5d146101f257610137565b80638cf0e204146101a2578063b0e4556f146101aa578063ba41cea8146101b2578063bad1d3da146101ba578063dc99b69f146101c257610137565b80634ae9220d116100ff5780634ae9220d1461017a578063650e5f8d146101825780636f6941b91461018a5780637dc0d1d0146101925780638a1c4dbc1461019a57610137565b8063053363061461013c5780630f7dbfa31461015a5780630ff1f4481461016257806336522b9b1461016a57806336f5858814610172575b600080fd5b6101446101fa565b6040516101519190610335565b60405180910390f35b610144610209565b610144610218565b610144610227565b610144610236565b610144610245565b610144610254565b610144610263565b610144610272565b610144610281565b610144610290565b61014461029f565b6101446102ae565b6101446102bd565b6101446102cc565b6101446102db565b6101446102ea565b6101446102f9565b610144610308565b610144610317565b610144610326565b6000546001600160a01b031681565b6007546001600160a01b031681565b6003546001600160a01b031681565b6013546001600160a01b031681565b6014546001600160a01b031681565b600c546001600160a01b031681565b6004546001600160a01b031681565b6006546001600160a01b031681565b6011546001600160a01b031681565b6009546001600160a01b031681565b600d546001600160a01b031681565b600b546001600160a01b031681565b6005546001600160a01b031681565b6012546001600160a01b031681565b6008546001600160a01b031681565b600a546001600160a01b031681565b600e546001600160a01b031681565b600f546001600160a01b031681565b6010546001600160a01b031681565b6001546001600160a01b031681565b6002546001600160a01b031681565b6001600160a01b039190911681526020019056fea26469706673582212206d93e282902cee13e63d191c11bbbde04a151ebe37dafb812f98dcb3819de93564736f6c63430008010033",
    "linkReferences": {}
  }
}