{
  "abi": [
    {
      "inputs": [],
      "name": "DAI",
      "outputs": [
        {
          "internalType": "address",
          "name": "",
          "type": "address"
        }
      ],
      "stateMutability": "view",
      "type": "function"
    },
    {
      "inputs": [],
      "name": "DAIFeed",
      "outputs": [
        {
          "internalType": "address",
          "name": "",
          "type": "address"
        }
      ],
      "stateMutability": "view",
      "type": "function"
    },
    {
      "inputs": [],
      "name": "FEI",
      "outputs": [
        {
          "internalType": "address",
          "name": "",
          "type": "address"
        }
      ],
      "stateMutability": "view",
      "type": "function"
    },
    {
      "inputs": [],
      "name": "FEIFeed",
      "outputs": [
        {
          "internalType": "address",
          "name": "",
          "type": "address"
        }
      ],
      "stateMutability": "view",
      "type": "function"
    },
    {
      "inputs": [],
      "name": "FRAX",
      "outputs": [
        {
          "internalType": "address",
          "name": "",
          "type": "address"
        }
      ],
      "stateMutability": "view",
      "type": "function"
    },
    {
      "inputs": [],
      "name": "FRAXFeed",
      "outputs": [
        {
          "internalType": "address",
          "name": "",
          "type": "address"
        }
      ],
      "stateMutability": "view",
      "type": "function"
    },
    {
      "inputs": [],
      "name": "RAI",
      "outputs": [
        {
          "internalType": "address",
          "name": "",
          "type": "address"
        }
      ],
      "stateMutability": "view",
      "type": "function"
    },
    {
      "inputs": [],
      "name": "RAIFeed",
      "outputs": [
        {
          "internalType": "address",
          "name": "",
          "type": "address"
        }
      ],
      "stateMutability": "view",
      "type": "function"
    },
    {
      "inputs": [],
      "name": "USDC",
      "outputs": [
        {
          "internalType": "address",
          "name": "",
          "type": "address"
        }
      ],
      "stateMutability": "view",
      "type": "function"
    },
    {
      "inputs": [],
      "name": "USDCFeed",
      "outputs": [
        {
          "internalType": "address",
          "name": "",
          "type": "address"
        }
      ],
      "stateMutability": "view",
      "type": "function"
    },
    {
      "inputs": [],
      "name": "aDAI",
      "outputs": [
        {
          "internalType": "address",
          "name": "",
          "type": "address"
        }
      ],
      "stateMutability": "view",
      "type": "function"
    },
    {
      "inputs": [],
      "name": "aFEI",
      "outputs": [
        {
          "internalType": "address",
          "name": "",
          "type": "address"
        }
      ],
      "stateMutability": "view",
      "type": "function"
    },
    {
      "inputs": [],
      "name": "aFRAX",
      "outputs": [
        {
          "internalType": "address",
          "name": "",
          "type": "address"
        }
      ],
      "stateMutability": "view",
      "type": "function"
    },
    {
      "inputs": [],
      "name": "aRAI",
      "outputs": [
        {
          "internalType": "address",
          "name": "",
          "type": "address"
        }
      ],
      "stateMutability": "view",
      "type": "function"
    },
    {
      "inputs": [],
      "name": "aUSDC",
      "outputs": [
        {
          "internalType": "address",
          "name": "",
          "type": "address"
        }
      ],
      "stateMutability": "view",
      "type": "function"
    },
    {
      "inputs": [],
      "name": "admin",
      "outputs": [
        {
          "internalType": "address",
          "name": "",
          "type": "address"
        }
      ],
      "stateMutability": "view",
      "type": "function"
    },
    {
      "inputs": [],
      "name": "bSTBL",
      "outputs": [
        {
          "internalType": "address",
          "name": "",
          "type": "address"
        }
      ],
      "stateMutability": "view",
      "type": "function"
    },
    {
      "inputs": [],
      "name": "bSTBLLendingManager",
      "outputs": [
        {
          "internalType": "address",
          "name": "",
          "type": "address"
        }
      ],
      "stateMutability": "view",
      "type": "function"
    },
    {
      "inputs": [],
      "name": "bUSD",
      "outputs": [
        {
          "internalType": "address",
          "name": "",
          "type": "address"
        }
      ],
      "stateMutability": "view",
      "type": "function"
    },
    {
      "inputs": [],
      "name": "bdETH",
      "outputs": [
        {
          "internalType": "contract ICToken",
          "name": "",
          "type": "address"
        }
      ],
      "stateMutability": "view",
      "type": "function"
    },
    {
      "inputs": [],
      "name": "bdUSD",
      "outputs": [
        {
          "internalType": "contract ICToken",
          "name": "",
          "type": "address"
        }
      ],
      "stateMutability": "view",
      "type": "function"
    },
    {
      "inputs": [],
      "name": "lendingRegistry",
      "outputs": [
        {
          "internalType": "contract ILendingRegistry",
          "name": "",
          "type": "address"
        }
      ],
      "stateMutability": "view",
      "type": "function"
    },
    {
      "inputs": [],
      "name": "oracle",
      "outputs": [
        {
          "internalType": "address",
          "name": "",
          "type": "address"
        }
      ],
      "stateMutability": "view",
      "type": "function"
    },
    {
      "inputs": [],
      "name": "raiCurvePool",
      "outputs": [
        {
          "internalType": "address",
          "name": "",
          "type": "address"
        }
      ],
      "stateMutability": "view",
      "type": "function"
    },
    {
      "inputs": [],
      "name": "recipe",
      "outputs": [
        {
          "internalType": "address",
          "name": "",
          "type": "address"
        }
      ],
      "stateMutability": "view",
      "type": "function"
    },
    {
      "inputs": [],
      "name": "unitroller",
      "outputs": [
        {
          "internalType": "address",
          "name": "",
          "type": "address"
        }
      ],
      "stateMutability": "view",
      "type": "function"
    },
    {
      "inputs": [],
      "name": "usdcInterestRateModel",
      "outputs": [
        {
          "internalType": "address",
          "name": "",
          "type": "address"
        }
      ],
      "stateMutability": "view",
      "type": "function"
    }
  ],
  "bytecode": {
    "object": "0x6080604052600080546001600160a01b031990811673c0601094c0c88264ba285fef0a1b00ef13e793471790915560018054821673f635fdf9b36b557bd281aa02fdfaebec04cd084a179055600280548216735ee08f40b637417bcc9d2c51b62f4820ec9cf5d8179055600380548216737945b0a6674b175695e5d1d08ae1e6f13744abb017905560048054821673bcca60bb61934080951369a648fb03df4f96263c17905560058054821673c9bc48c72154ef3e5425641a3c747242112a46af17905560068054821673683923db55fead99a79fa01a27eec3cb19679cc317905560078054821673028171bca77440897b824ca71d1c56cac55b68a317905560088054821673d4937682df3c8aef4fe912a96a74121c0829e66417905560098054821673a0b86991c6218b36c1d19d4a2e9eb0ce3606eb48179055600a805482167303ab458634910aad20ef5f1c8ee96f1d6ac54919179055600b8054821673956f47f50a910163d8bf957cf5846d573e7f87ca179055600c80548216736b175474e89094c44da98b954eedeac495271d0f179055600d8054821673853d955acef822db058eb8505911ed77f175b99e179055600e80548216738fffffd4afb6115b954bd326cbe7b4ba576818f6179055600f8054821673483d36f6a1d063d580c7a24f9a42b346f3a69fbb1790556010805482167331e0a88fecb6ec0a411dbe0e9e76391498296ee917905560118054821673aed0c38402a5d19df6e4c03f4e2dced6e29c1ee917905560128054821673b9e1e3a9feff48998e45fa90847ed4d467e8bcfd17905560138054821673fc69e0a5823e2afcbeb8a35d33588360f1496a0017905560148054821673ebdc2d2a203c17895be0dacdf539eefc710eafd8179055601580548216730be1fdc1e87127c4fe7c05bae6437e3cf90bf8d817905560168054821673681cf55f0276126fad8842133c839ab4d607e72917905560178054821673ac0fe9f363c160c281c81ddc49d0aa8ce04c02eb1790556018805482167308a2b7d713e388123dc6678168656659d297d397179055601980548216735c0afef620f512e2fa65c765a72fa46f9a41c6bd179055601a805490911673618788357d0ebd8a37e763adab3bc575d54c2c7d17905534801561034657600080fd5b5061047b806103566000396000f3fe608060405234801561001057600080fd5b50600436106101a95760003560e01c80638cf0e204116100f9578063e989f81211610097578063f851a44011610071578063f851a4401461027c578063f85a201814610284578063fb5f135d1461028c578063fe0a0a5d14610294576101a9565b8063e989f81214610264578063ed87b5401461026c578063eeb401a914610274576101a9565b8063bad1d3da116100d3578063bad1d3da14610244578063dc99b69f1461024c578063e0bab4c414610254578063e861b1521461025c576101a9565b80638cf0e2041461022c578063b0e4556f14610234578063ba41cea81461023c576101a9565b8063446b900111610166578063650e5f8d11610140578063650e5f8d1461020c5780637dc0d1d01461021457806389a302711461021c5780638a1c4dbc14610224576101a9565b8063446b9001146101f45780634ae9220d146101fc578063559fda3314610204576101a9565b806305336306146101ae5780630f7dbfa3146101cc5780630ff1f448146101d45780631a38a4fb146101dc57806336522b9b146101e457806336f58588146101ec575b600080fd5b6101b661029c565b6040516101c39190610431565b60405180910390f35b6101b66102ab565b6101b66102ba565b6101b66102c9565b6101b66102d8565b6101b66102e7565b6101b66102f6565b6101b6610305565b6101b6610314565b6101b6610323565b6101b6610332565b6101b6610341565b6101b6610350565b6101b661035f565b6101b661036e565b6101b661037d565b6101b661038c565b6101b661039b565b6101b66103aa565b6101b66103b9565b6101b66103c8565b6101b66103d7565b6101b66103e6565b6101b66103f5565b6101b6610404565b6101b6610413565b6101b6610422565b6000546001600160a01b031681565b6008546001600160a01b031681565b6003546001600160a01b031681565b6007546001600160a01b031681565b6016546001600160a01b031681565b6017546001600160a01b031681565b600e546001600160a01b031681565b600f546001600160a01b031681565b6004546001600160a01b031681565b6005546001600160a01b031681565b6014546001600160a01b031681565b6009546001600160a01b031681565b600b546001600160a01b031681565b6010546001600160a01b031681565b600d546001600160a01b031681565b6006546001600160a01b031681565b6015546001600160a01b031681565b600a546001600160a01b031681565b600c546001600160a01b031681565b6011546001600160a01b031681565b601a546001600160a01b031681565b6012546001600160a01b031681565b6018546001600160a01b031681565b6013546001600160a01b031681565b6019546001600160a01b031681565b6001546001600160a01b031681565b6002546001600160a01b031681565b6001600160a01b039190911681526020019056fea26469706673582212206d3c2a0a10799f72e0522477088843115ad643b896c403c9025a2af90cb2054c64736f6c63430008010033",
    "linkReferences": {}
  },
  "methodIdentifiers": {
    "DAI()": "e0bab4c4",
    "DAIFeed()": "e861b152",
    "FEI()": "8a1c4dbc",
    "FEIFeed()": "8cf0e204",
    "FRAX()": "b0e4556f",
    "FRAXFeed()": "ed87b540",
    "RAI()": "dc99b69f",
    "RAIFeed()": "4ae9220d",
    "USDC()": "89a30271",
    "USDCFeed()": "446b9001",
    "aDAI()": "1a38a4fb",
    "aFEI()": "ba41cea8",
    "aFRAX()": "0f7dbfa3",
    "aRAI()": "650e5f8d",
    "aUSDC()": "559fda33",
    "admin()": "f851a440",
    "bSTBL()": "fe0a0a5d",
    "bSTBLLendingManager()": "f85a2018",
    "bUSD()": "0ff1f448",
    "bdETH()": "fb5f135d",
    "bdUSD()": "05336306",
    "lendingRegistry()": "eeb401a9",
    "oracle()": "7dc0d1d0",
    "raiCurvePool()": "e989f812",
    "recipe()": "36f58588",
    "unitroller()": "bad1d3da",
    "usdcInterestRateModel()": "36522b9b"
  },
  "id": 23
}